{"abi":[{"type":"constructor","inputs":[{"name":"_feeRecipient","type":"address","internalType":"address"}],"stateMutability":"nonpayable"},{"type":"function","name":"BPS","inputs":[],"outputs":[{"name":"","type":"uint256","internalType":"uint256"}],"stateMutability":"view"},{"type":"function","name":"FEE_BPS","inputs":[],"outputs":[{"name":"","type":"uint256","internalType":"uint256"}],"stateMutability":"view"},{"type":"function","name":"MAX_COINS","inputs":[],"outputs":[{"name":"","type":"uint256","internalType":"uint256"}],"stateMutability":"view"},{"type":"function","name":"MIN_DURATION","inputs":[],"outputs":[{"name":"","type":"uint256","internalType":"uint256"}],"stateMutability":"view"},{"type":"function","name":"MIN_WAGER","inputs":[],"outputs":[{"name":"","type":"uint256","internalType":"uint256"}],"stateMutability":"view"},{"type":"function","name":"REFUND_TIMEOUT","inputs":[],"outputs":[{"name":"","type":"uint256","internalType":"uint256"}],"stateMutability":"view"},{"type":"function","name":"cancelRound","inputs":[{"name":"_roundId","type":"uint256","internalType":"uint256"}],"outputs":[],"stateMutability":"nonpayable"},{"type":"function","name":"claimWinnings","inputs":[{"name":"_roundId","type":"uint256","internalType":"uint256"}],"outputs":[],"stateMutability":"nonpayable"},{"type":"function","name":"coinTotals","inputs":[{"name":"roundId","type":"uint256","internalType":"uint256"},{"name":"coinIndex","type":"uint256","internalType":"uint256"}],"outputs":[{"name":"total","type":"uint256","internalType":"uint256"}],"stateMutability":"view"},{"type":"function","name":"commitWinner","inputs":[{"name":"_roundId","type":"uint256","internalType":"uint256"},{"name":"_commitmentHash","type":"bytes32","internalType":"bytes32"}],"outputs":[],"stateMutability":"nonpayable"},{"type":"function","name":"computeCommitment","inputs":[{"name":"_roundId","type":"uint256","internalType":"uint256"},{"name":"_winningCoinIndex","type":"uint256","internalType":"uint256"},{"name":"_salt","type":"bytes32","internalType":"bytes32"}],"outputs":[{"name":"","type":"bytes32","internalType":"bytes32"}],"stateMutability":"pure"},{"type":"function","name":"createRound","inputs":[{"name":"_coins","type":"string[]","internalType":"string[]"},{"name":"_duration","type":"uint256","internalType":"uint256"}],"outputs":[{"name":"roundId","type":"uint256","internalType":"uint256"}],"stateMutability":"nonpayable"},{"type":"function","name":"emergencyRefund","inputs":[{"name":"_roundId","type":"uint256","internalType":"uint256"}],"outputs":[],"stateMutability":"nonpayable"},{"type":"function","name":"feeRecipient","inputs":[],"outputs":[{"name":"","type":"address","internalType":"address"}],"stateMutability":"view"},{"type":"function","name":"getCoinTotal","inputs":[{"name":"_roundId","type":"uint256","internalType":"uint256"},{"name":"_coinIndex","type":"uint256","internalType":"uint256"}],"outputs":[{"name":"","type":"uint256","internalType":"uint256"}],"stateMutability":"view"},{"type":"function","name":"getRound","inputs":[{"name":"_roundId","type":"uint256","internalType":"uint256"}],"outputs":[{"name":"coins_","type":"string[]","internalType":"string[]"},{"name":"deadline_","type":"uint256","internalType":"uint256"},{"name":"totalPot_","type":"uint256","internalType":"uint256"},{"name":"winningCoinIndex_","type":"uint256","internalType":"uint256"},{"name":"commitment_","type":"bytes32","internalType":"bytes32"},{"name":"resolved_","type":"bool","internalType":"bool"},{"name":"cancelled_","type":"bool","internalType":"bool"}],"stateMutability":"view"},{"type":"function","name":"getWager","inputs":[{"name":"_roundId","type":"uint256","internalType":"uint256"},{"name":"_user","type":"address","internalType":"address"}],"outputs":[{"name":"coinIndex_","type":"uint256","internalType":"uint256"},{"name":"amount_","type":"uint256","internalType":"uint256"},{"name":"claimed_","type":"bool","internalType":"bool"},{"name":"refunded_","type":"bool","internalType":"bool"}],"stateMutability":"view"},{"type":"function","name":"isBettingOpen","inputs":[{"name":"_roundId","type":"uint256","internalType":"uint256"}],"outputs":[{"name":"","type":"bool","internalType":"bool"}],"stateMutability":"view"},{"type":"function","name":"isRefundAvailable","inputs":[{"name":"_roundId","type":"uint256","internalType":"uint256"}],"outputs":[{"name":"","type":"bool","internalType":"bool"}],"stateMutability":"view"},{"type":"function","name":"nextRoundId","inputs":[],"outputs":[{"name":"","type":"uint256","internalType":"uint256"}],"stateMutability":"view"},{"type":"function","name":"owner","inputs":[],"outputs":[{"name":"","type":"address","internalType":"address"}],"stateMutability":"view"},{"type":"function","name":"placeWager","inputs":[{"name":"_roundId","type":"uint256","internalType":"uint256"},{"name":"_coinIndex","type":"uint256","internalType":"uint256"}],"outputs":[],"stateMutability":"payable"},{"type":"function","name":"renounceOwnership","inputs":[],"outputs":[],"stateMutability":"pure"},{"type":"function","name":"resolveRound","inputs":[{"name":"_roundId","type":"uint256","internalType":"uint256"},{"name":"_winningCoinIndex","type":"uint256","internalType":"uint256"},{"name":"_salt","type":"bytes32","internalType":"bytes32"}],"outputs":[],"stateMutability":"nonpayable"},{"type":"function","name":"rounds","inputs":[{"name":"roundId","type":"uint256","internalType":"uint256"}],"outputs":[{"name":"deadline","type":"uint256","internalType":"uint256"},{"name":"totalPot","type":"uint256","internalType":"uint256"},{"name":"winningCoinIndex","type":"uint256","internalType":"uint256"},{"name":"commitment","type":"bytes32","internalType":"bytes32"},{"name":"resolved","type":"bool","internalType":"bool"},{"name":"exists","type":"bool","internalType":"bool"},{"name":"cancelled","type":"bool","internalType":"bool"}],"stateMutability":"view"},{"type":"function","name":"setFeeRecipient","inputs":[{"name":"_feeRecipient","type":"address","internalType":"address"}],"outputs":[],"stateMutability":"nonpayable"},{"type":"function","name":"transferOwnership","inputs":[{"name":"newOwner","type":"address","internalType":"address"}],"outputs":[],"stateMutability":"nonpayable"},{"type":"function","name":"wagers","inputs":[{"name":"roundId","type":"uint256","internalType":"uint256"},{"name":"user","type":"address","internalType":"address"}],"outputs":[{"name":"coinIndex","type":"uint256","internalType":"uint256"},{"name":"amount","type":"uint256","internalType":"uint256"},{"name":"claimed","type":"bool","internalType":"bool"},{"name":"refunded","type":"bool","internalType":"bool"}],"stateMutability":"view"},{"type":"function","name":"winningPool","inputs":[{"name":"roundId","type":"uint256","internalType":"uint256"}],"outputs":[{"name":"total","type":"uint256","internalType":"uint256"}],"stateMutability":"view"},{"type":"event","name":"EmergencyRefund","inputs":[{"name":"roundId","type":"uint256","indexed":true,"internalType":"uint256"},{"name":"user","type":"address","indexed":true,"internalType":"address"},{"name":"amount","type":"uint256","indexed":false,"internalType":"uint256"}],"anonymous":false},{"type":"event","name":"FeeRecipientUpdated","inputs":[{"name":"oldRecipient","type":"address","indexed":true,"internalType":"address"},{"name":"newRecipient","type":"address","indexed":true,"internalType":"address"}],"anonymous":false},{"type":"event","name":"FeesCollected","inputs":[{"name":"amount","type":"uint256","indexed":false,"internalType":"uint256"}],"anonymous":false},{"type":"event","name":"OwnershipTransferred","inputs":[{"name":"previousOwner","type":"address","indexed":true,"internalType":"address"},{"name":"newOwner","type":"address","indexed":true,"internalType":"address"}],"anonymous":false},{"type":"event","name":"RoundCancelled","inputs":[{"name":"roundId","type":"uint256","indexed":true,"internalType":"uint256"}],"anonymous":false},{"type":"event","name":"RoundCreated","inputs":[{"name":"roundId","type":"uint256","indexed":true,"internalType":"uint256"},{"name":"coins","type":"string[]","indexed":false,"internalType":"string[]"},{"name":"deadline","type":"uint256","indexed":false,"internalType":"uint256"}],"anonymous":false},{"type":"event","name":"RoundResolved","inputs":[{"name":"roundId","type":"uint256","indexed":true,"internalType":"uint256"},{"name":"winningCoinIndex","type":"uint256","indexed":false,"internalType":"uint256"},{"name":"winningCoin","type":"string","indexed":false,"internalType":"string"}],"anonymous":false},{"type":"event","name":"WagerPlaced","inputs":[{"name":"roundId","type":"uint256","indexed":true,"internalType":"uint256"},{"name":"user","type":"address","indexed":true,"internalType":"address"},{"name":"coinIndex","type":"uint256","indexed":false,"internalType":"uint256"},{"name":"amount","type":"uint256","indexed":false,"internalType":"uint256"}],"anonymous":false},{"type":"event","name":"WinnerCommitted","inputs":[{"name":"roundId","type":"uint256","indexed":true,"internalType":"uint256"},{"name":"commitmentHash","type":"bytes32","indexed":false,"internalType":"bytes32"}],"anonymous":false},{"type":"event","name":"WinningsClaimed","inputs":[{"name":"roundId","type":"uint256","indexed":true,"internalType":"uint256"},{"name":"user","type":"address","indexed":true,"internalType":"address"},{"name":"amount","type":"uint256","indexed":false,"internalType":"uint256"}],"anonymous":false},{"type":"error","name":"AlreadyClaimed","inputs":[]},{"type":"error","name":"AlreadyCommitted","inputs":[]},{"type":"error","name":"AlreadyRefunded","inputs":[]},{"type":"error","name":"BettingClosed","inputs":[]},{"type":"error","name":"BettingStillOpen","inputs":[]},{"type":"error","name":"CommitmentMismatch","inputs":[]},{"type":"error","name":"DurationTooShort","inputs":[]},{"type":"error","name":"InsufficientWager","inputs":[]},{"type":"error","name":"InvalidCoinIndex","inputs":[]},{"type":"error","name":"NeedAtLeastTwoCoins","inputs":[]},{"type":"error","name":"NoCommitment","inputs":[]},{"type":"error","name":"NoWinnersExist","inputs":[]},{"type":"error","name":"NoWinnings","inputs":[]},{"type":"error","name":"OwnableInvalidOwner","inputs":[{"name":"owner","type":"address","internalType":"address"}]},{"type":"error","name":"OwnableUnauthorizedAccount","inputs":[{"name":"account","type":"address","internalType":"address"}]},{"type":"error","name":"RefundTooEarly","inputs":[]},{"type":"error","name":"RoundAlreadyResolved","inputs":[]},{"type":"error","name":"RoundIsCancelled","inputs":[]},{"type":"error","name":"RoundNotActive","inputs":[]},{"type":"error","name":"RoundNotResolved","inputs":[]},{"type":"error","name":"TooManyCoins","inputs":[]},{"type":"error","name":"TransferFailed","inputs":[]},{"type":"error","name":"ZeroAddress","inputs":[]}],"bytecode":{"object":"0x6080346100df57601f61160238819003918201601f19168301916001600160401b038311848410176100e3578084926020946040528339810103126100df57516001600160a01b03808216918290036100df5733156100c7575f549060018060a01b03199133838216175f55604051913391167f8be0079c531659141344cd1fd0a4f28419497f9722a3daafe3b4186f6b6457e05f80a36001805582156100b85750600254161760025560405161150a90816100f88239f35b63d92e233d60e01b8152600490fd5b604051631e4fbdf760e01b81525f6004820152602490fd5b5f80fd5b634e487b7160e01b5f52604160045260245ffdfe6080806040526004361015610012575f80fd5b5f3560e01c9081630175ccd314610fb9575080631900c42b14610d2a578063249d39e914610f9d57806329331ab814610f7c578063384302a914610f615780634002eda614610f445780634690484014610f1c5780634ac1440d14610e94578063677bd9ff14610d595780636f15ee7f14610d2a57806370e5deb914610bfa578063715018a614610bd85780637c6145b714610b3a5780637d57900a14610b1d5780637e07ab0914610a8c5780638c65c81f14610a145780638da5cb5b146109ed5780638f1327c01461090b578063a0e2dff4146107a5578063add5e689146106ec578063b6a6d17714610789578063bf333f2c1461076d578063caafb322146106ec578063e3773fa514610676578063e74b981b14610602578063f2fde38b14610576578063f5a28891146101c9578063fdb6cf45146101a85763ffdf417c1461015b575f80fd5b346101a457602061019961016e36610ff5565b604080518681019485526020850193909352830152909181606084015b03601f1981018352826110c0565b519020604051908152f35b5f80fd5b346101a4575f3660031901126101a457602060405166038d7ea4c680008152f35b346101a45760403660031901126101a45760043567ffffffffffffffff81116101a457366023820112156101a4578060040135610205816110e2565b9161021360405193846110c0565b81835260208301906024829360051b820101903682116101a45760248101925b82841061050b5785856102446114a9565b610e10602435106104f95760028251106104e75760148251116104d657600154905f1982146104c25760018201600155815f52600360205260405f209083519068010000000000000000821161043c578254828455808310610450575b505f8381526020812092915b82821061032557602086807fc7f4f74bb7afe26ef327e09549d92480c3a18f403359c991c817614ce3f278da6103158b8a60056102ec60243542611486565b918260018201550161010061ff001982541617905560405192839260408452604084019061100f565b90878301520390a2604051908152f35b805180519067ffffffffffffffff821161043c576103438654611145565b90601f91828111610404575b5060209183116001146103985792826001949360209386955f9261038d575b50505f19600383901b1c191690841b1787555b019401910190926102ad565b015190508c8061036e565b90865f5260205f20915f5b601f19851681106103ec575083602093600196938796938794601f198116106103d4575b505050811b018755610381565b01515f1960f88460031b161c191690558c80806103c7565b919260206001819286850151815501940192016103a3565b61042d90885f5260205f208480870160051c82019260208810610433575b0160051c0190611493565b8a61034f565b92508192610422565b634e487b7160e01b5f52604160045260245ffd5b835f5260205f20908382015b818301811061046c5750506102a1565b8061047960019254611145565b80610486575b500161045c565b601f90818111841461049e5750505f81555b8961047f565b6104b95f9284845260208420920160051c8201858301611493565b81835555610498565b634e487b7160e01b5f52601160045260245ffd5b60405162b19bd760e51b8152600490fd5b60405163c956490360e01b8152600490fd5b6040516325c3636760e01b8152600490fd5b833567ffffffffffffffff81116101a457820190366043830112156101a45760248201359060449261053c836110fa565b9061054a60405192836110c0565b838252368585830101116101a45760208481969582965f94018386013783010152815201930192610233565b346101a45760203660031901126101a45761058f6110aa565b6105976114a9565b6001600160a01b039081169081156105f0576105b16114a9565b5f54826bffffffffffffffffffffffff60a01b8216175f55167f8be0079c531659141344cd1fd0a4f28419497f9722a3daafe3b4186f6b6457e05f80a3005b60405163d92e233d60e01b8152600490fd5b346101a45760203660031901126101a45761061b6110aa565b6106236114a9565b6001600160a01b039081169081156105f057600254826bffffffffffffffffffffffff60a01b821617600255167faaebcf1bfa00580e41d966056b48521fa9f202645c86d4ddf28113e617c1b1d35f80a3005b346101a45760203660031901126101a4576004355f526003602052602060405f2060058101549060ff8260081c1691826106e0575b826106d1575b50816106c3575b506040519015158152f35b6001915001544210826106b8565b60101c60ff16159150836106b1565b60ff81161592506106ab565b346101a45760403660031901126101a457610705611094565b6004355f52600460205260405f209060018060a01b03165f5260205260405f208054906107696002600183015492015460405193849360ff808460081c16931691859260609295949195608085019685526020850152151560408401521515910152565b0390f35b346101a4575f3660031901126101a45760206040516101f48152f35b346101a4575f3660031901126101a4576020604051610e108152f35b6107ae36610fdf565b90805f5260206003815260405f20600581015460ff8160081c16156108f95760101c60ff166108e85760018101544210156108d65780548410156108a75766038d7ea4c6800034106108c457825f526004825260405f20335f52825260405f2090600182018054928315938415806108b9575b6108a7578761083b9260029661089f575b50503490611486565b905501610849348254611486565b9055815f526005815260405f20835f52815260405f2061086a348254611486565b905560405192835234908301527fac7842bbd85e5b7fefb61bdd4c46965c06b188aa772aeba7748e5ec17f23318c60403393a3005b558789610832565b6040516315464a8360e01b8152600490fd5b508782541415610821565b604051634c89f48760e11b8152600490fd5b6040516330e2a62560e11b8152600490fd5b6040516218635360eb1b8152600490fd5b604051633df07da560e01b8152600490fd5b346101a4576020806003193601126101a4576004355f526003815260405f20600191600182015460028301546003840154906004850154926005860154968654610954816110e2565b97610962604051998a6110c0565b8189525f908152878120888a015b8383106109c3576109978b8b60ff8f8d8d8d8d60405198899860e08a5260e08a019061100f565b96880152604087015260608601526080850152818116151560a085015260101c16151560c08301520390f35b848a81926040516109df816109d8818961117d565b03826110c0565b815201920192019190610970565b346101a4575f3660031901126101a4575f546040516001600160a01b039091168152602090f35b346101a45760203660031901126101a4576004355f52600360205260e060405f2060ff6001820154916002810154906003810154600560048301549201549260405195865260208601526040850152606084015281811615156080840152818160081c16151560a084015260101c16151560c0820152f35b346101a45760203660031901126101a457600435610aa86114a9565b805f526003602052600560405f2001805460ff8160081c16156108f95760ff8116610b0b5760ff8160101c166108e85762ff00001916620100001790557fbf7aeff89cf7a4c3d0145879e39aa6a19e8e64ed585090ef86bf31f4d2ae57bf5f80a2005b604051637e28f94960e01b8152600490fd5b346101a4575f3660031901126101a457602060405162093a808152f35b346101a45760403660031901126101a457600435602435610b596114a9565b815f52600360205260405f20600581015460ff8160081c16156108f95760101c60ff166108e85760048101908154610bc657600101544210156108d657817f2b0dc626d67489c4ac469ea0f7b7183bcf4700e418d8d81816933f3cfdc7fc159260209255604051908152a2005b6040516317fd8aab60e31b8152600490fd5b346101a4575f3660031901126101a45760405163d92e233d60e01b8152600490fd5b346101a45760203660031901126101a457600435805f52600360205260405f2090600460205260405f20335f5260205260405f2091600581015460ff8160081c16156108f95760ff8116610b0b5760101c60ff16159081610d0f575b50610cfd576002820180549260ff8460081c16610ceb5760010154928315610cd95761ff0019166101001790555f80808085335af1610c93611116565b5015610cc7576040519182527fbd634c7bdf536d4ef89dad94ea8933d03e5fbb8be4f85fc7699f5859497d793f60203393a3005b6040516312171d8360e31b8152600490fd5b6040516330a748d360e11b8152600490fd5b60405163542f378d60e11b8152600490fd5b604051634a01daaf60e11b8152600490fd5b60019150015462093a8081018091116104c257421083610c56565b346101a457610d3836610fdf565b905f52600560205260405f20905f52602052602060405f2054604051908152f35b346101a4576020806003193601126101a457600435805f526003825260405f20916004815260405f20335f52815260405f209260ff60058201541615610e8257600284019081549460ff8616610e705760ff8660081c16610ceb578054600383015403610cd95760010154908115610cd957600201546101f48082029082820414821517156104c257612710900481039081116104c257808202918204036104c257835f526006835260405f20548015610e5c57600191049460ff19161790555f80808086335af1610e29611116565b5015610cc7577f5380cf6fe903b40c6d5a9e0dfbca2f3a423f0a21520b4d5947ed5169bdba946d906040519384523393a3005b634e487b7160e01b5f52601260045260245ffd5b604051630c8d9eab60e31b8152600490fd5b604051637150b2cd60e11b8152600490fd5b346101a45760203660031901126101a4576004355f52600360205260405f20600581015460ff8160081c169081610f10575b81610ed9575b6020826040519015158152f35b60ff915060101c16908115610ef3575b5060209082610ecc565b60019150015462093a8081018091116104c2574210156020610ee9565b60ff8116159150610ec6565b346101a4575f3660031901126101a4576002546040516001600160a01b039091168152602090f35b346101a4575f3660031901126101a4576020600154604051908152f35b346101a4575f3660031901126101a457602060405160148152f35b346101a457610f9b610f8d36610ff5565b91610f966114a9565b61120e565b005b346101a4575f3660031901126101a45760206040516127108152f35b346101a45760203660031901126101a4576020906004355f526006825260405f20548152f35b60409060031901126101a4576004359060243590565b60609060031901126101a457600435906024359060443590565b9080825180825260208092019180808360051b8601019501935f905b83821061103b5750505050505090565b90919293949583601f198084840301885288518051908185525f5b8281106110805750505f818501840152601f0116909101810196810195019392916001019061102b565b818101850151868201860152889401611056565b602435906001600160a01b03821682036101a457565b600435906001600160a01b03821682036101a457565b90601f8019910116810190811067ffffffffffffffff82111761043c57604052565b67ffffffffffffffff811161043c5760051b60200190565b67ffffffffffffffff811161043c57601f01601f191660200190565b3d15611140573d90611127826110fa565b9161113560405193846110c0565b82523d5f602084013e565b606090565b90600182811c92168015611173575b602083101461115f57565b634e487b7160e01b5f52602260045260245ffd5b91607f1691611154565b80545f939261118b82611145565b918282526020936001916001811690815f146111ef57506001146111b1575b5050505050565b90939495505f92919252835f2092845f945b8386106111db57505050500101905f808080806111aa565b8054858701830152940193859082016111c3565b60ff19168685015250505090151560051b010191505f808080806111aa565b9190825f5260209160038352604090815f209060058201805460ff8160081c16156114755760ff8160101c166114655760ff811661145457600184015442106114435783548610156114325760049283850154908115611422578651808a018b8152602081018a9052604081019290925261128c816060840161018b565b5190200361141257875f5260058752845f20865f528752845f2054156113d75750846003840155600160ff19825416179055855f5260058552825f20845f528552825f2054865f5260068652835f205560028201546101f4908181029181830414901517156113c457612710900480611366575b50815484101561135357507f9d95d9b370cc636ecac07c94460e551d237299c03ac358ae0f769baafd0fe28393929161134e915f5282845f200190808051958695865285015283019061117d565b0390a2565b603290634e487b7160e01b5f525260245ffd5b5f8080808460018060a01b03600254165af1611380611116565b50156113b557857f860c0aa5520013080c2f65981705fcdea474d9f7c3daf954656ed5e65d692d1f918551908152a15f611300565b5082516312171d8360e31b8152fd5b601182634e487b7160e01b5f525260245ffd5b62ff0000191662010000179055507fbf7aeff89cf7a4c3d0145879e39aa6a19e8e64ed585090ef86bf31f4d2ae57bf93505f925082915050a2565b8451635054097b60e01b81528390fd5b8651635b07c98960e01b81528590fd5b84516315464a8360e01b8152600490fd5b845163605d9c5960e11b8152600490fd5b8451637e28f94960e01b8152600490fd5b84516218635360eb1b8152600490fd5b8451633df07da560e01b8152600490fd5b919082018092116104c257565b81811061149e575050565b5f8155600101611493565b5f546001600160a01b031633036114bc57565b60405163118cdaa760e01b8152336004820152602490fdfea264697066735822122040931fbc20b7fbf944c5ac2bf42f7c9932b0d9173ebf2b230672256cbd30894064736f6c63430008180033","linkReferences":{}},"methodIdentifiers":{"BPS()":"249d39e9","FEE_BPS()":"bf333f2c","MAX_COINS()":"384302a9","MIN_DURATION()":"b6a6d177","MIN_WAGER()":"fdb6cf45","REFUND_TIMEOUT()":"7d57900a","cancelRound(uint256)":"7e07ab09","claimWinnings(uint256)":"677bd9ff","coinTotals(uint256,uint256)":"1900c42b","commitWinner(uint256,bytes32)":"7c6145b7","computeCommitment(uint256,uint256,bytes32)":"ffdf417c","createRound(string[],uint256)":"f5a28891","emergencyRefund(uint256)":"70e5deb9","feeRecipient()":"46904840","getCoinTotal(uint256,uint256)":"6f15ee7f","getRound(uint256)":"8f1327c0","getWager(uint256,address)":"caafb322","isBettingOpen(uint256)":"e3773fa5","isRefundAvailable(uint256)":"4ac1440d","nextRoundId()":"4002eda6","owner()":"8da5cb5b","placeWager(uint256,uint256)":"a0e2dff4","renounceOwnership()":"715018a6","resolveRound(uint256,uint256,bytes32)":"29331ab8","rounds(uint256)":"8c65c81f","setFeeRecipient(address)":"e74b981b","transferOwnership(address)":"f2fde38b","wagers(uint256,address)":"add5e689","winningPool(uint256)":"0175ccd3"},"id":0}