{"abi":[{"type":"constructor","inputs":[{"name":"_feeRecipient","type":"address","internalType":"address"}],"stateMutability":"nonpayable"},{"type":"function","name":"BPS","inputs":[],"outputs":[{"name":"","type":"uint256","internalType":"uint256"}],"stateMutability":"view"},{"type":"function","name":"FEE_BPS","inputs":[],"outputs":[{"name":"","type":"uint256","internalType":"uint256"}],"stateMutability":"view"},{"type":"function","name":"MIN_DURATION","inputs":[],"outputs":[{"name":"","type":"uint256","internalType":"uint256"}],"stateMutability":"view"},{"type":"function","name":"REFUND_TIMEOUT","inputs":[],"outputs":[{"name":"","type":"uint256","internalType":"uint256"}],"stateMutability":"view"},{"type":"function","name":"claimWinnings","inputs":[{"name":"_roundId","type":"uint256","internalType":"uint256"}],"outputs":[],"stateMutability":"nonpayable"},{"type":"function","name":"coinTotals","inputs":[{"name":"roundId","type":"uint256","internalType":"uint256"},{"name":"coinIndex","type":"uint256","internalType":"uint256"}],"outputs":[{"name":"total","type":"uint256","internalType":"uint256"}],"stateMutability":"view"},{"type":"function","name":"commitWinner","inputs":[{"name":"_roundId","type":"uint256","internalType":"uint256"},{"name":"_commitmentHash","type":"bytes32","internalType":"bytes32"}],"outputs":[],"stateMutability":"nonpayable"},{"type":"function","name":"computeCommitment","inputs":[{"name":"_roundId","type":"uint256","internalType":"uint256"},{"name":"_winningCoinIndex","type":"uint256","internalType":"uint256"},{"name":"_salt","type":"bytes32","internalType":"bytes32"}],"outputs":[{"name":"","type":"bytes32","internalType":"bytes32"}],"stateMutability":"pure"},{"type":"function","name":"createRound","inputs":[{"name":"_coins","type":"string[]","internalType":"string[]"},{"name":"_duration","type":"uint256","internalType":"uint256"}],"outputs":[{"name":"roundId","type":"uint256","internalType":"uint256"}],"stateMutability":"nonpayable"},{"type":"function","name":"emergencyRefund","inputs":[{"name":"_roundId","type":"uint256","internalType":"uint256"}],"outputs":[],"stateMutability":"nonpayable"},{"type":"function","name":"feeRecipient","inputs":[],"outputs":[{"name":"","type":"address","internalType":"address"}],"stateMutability":"view"},{"type":"function","name":"getCoinTotal","inputs":[{"name":"_roundId","type":"uint256","internalType":"uint256"},{"name":"_coinIndex","type":"uint256","internalType":"uint256"}],"outputs":[{"name":"","type":"uint256","internalType":"uint256"}],"stateMutability":"view"},{"type":"function","name":"getRound","inputs":[{"name":"_roundId","type":"uint256","internalType":"uint256"}],"outputs":[{"name":"coins_","type":"string[]","internalType":"string[]"},{"name":"deadline_","type":"uint256","internalType":"uint256"},{"name":"totalPot_","type":"uint256","internalType":"uint256"},{"name":"winningCoinIndex_","type":"uint256","internalType":"uint256"},{"name":"commitment_","type":"bytes32","internalType":"bytes32"},{"name":"resolved_","type":"bool","internalType":"bool"}],"stateMutability":"view"},{"type":"function","name":"getWager","inputs":[{"name":"_roundId","type":"uint256","internalType":"uint256"},{"name":"_user","type":"address","internalType":"address"}],"outputs":[{"name":"coinIndex_","type":"uint256","internalType":"uint256"},{"name":"amount_","type":"uint256","internalType":"uint256"},{"name":"claimed_","type":"bool","internalType":"bool"},{"name":"refunded_","type":"bool","internalType":"bool"}],"stateMutability":"view"},{"type":"function","name":"isBettingOpen","inputs":[{"name":"_roundId","type":"uint256","internalType":"uint256"}],"outputs":[{"name":"","type":"bool","internalType":"bool"}],"stateMutability":"view"},{"type":"function","name":"isRefundAvailable","inputs":[{"name":"_roundId","type":"uint256","internalType":"uint256"}],"outputs":[{"name":"","type":"bool","internalType":"bool"}],"stateMutability":"view"},{"type":"function","name":"nextRoundId","inputs":[],"outputs":[{"name":"","type":"uint256","internalType":"uint256"}],"stateMutability":"view"},{"type":"function","name":"owner","inputs":[],"outputs":[{"name":"","type":"address","internalType":"address"}],"stateMutability":"view"},{"type":"function","name":"placeWager","inputs":[{"name":"_roundId","type":"uint256","internalType":"uint256"},{"name":"_coinIndex","type":"uint256","internalType":"uint256"}],"outputs":[],"stateMutability":"payable"},{"type":"function","name":"renounceOwnership","inputs":[],"outputs":[],"stateMutability":"nonpayable"},{"type":"function","name":"resolveRound","inputs":[{"name":"_roundId","type":"uint256","internalType":"uint256"},{"name":"_winningCoinIndex","type":"uint256","internalType":"uint256"},{"name":"_salt","type":"bytes32","internalType":"bytes32"}],"outputs":[],"stateMutability":"nonpayable"},{"type":"function","name":"rounds","inputs":[{"name":"roundId","type":"uint256","internalType":"uint256"}],"outputs":[{"name":"deadline","type":"uint256","internalType":"uint256"},{"name":"totalPot","type":"uint256","internalType":"uint256"},{"name":"winningCoinIndex","type":"uint256","internalType":"uint256"},{"name":"commitment","type":"bytes32","internalType":"bytes32"},{"name":"resolved","type":"bool","internalType":"bool"},{"name":"exists","type":"bool","internalType":"bool"}],"stateMutability":"view"},{"type":"function","name":"setFeeRecipient","inputs":[{"name":"_feeRecipient","type":"address","internalType":"address"}],"outputs":[],"stateMutability":"nonpayable"},{"type":"function","name":"transferOwnership","inputs":[{"name":"newOwner","type":"address","internalType":"address"}],"outputs":[],"stateMutability":"nonpayable"},{"type":"function","name":"wagers","inputs":[{"name":"roundId","type":"uint256","internalType":"uint256"},{"name":"user","type":"address","internalType":"address"}],"outputs":[{"name":"coinIndex","type":"uint256","internalType":"uint256"},{"name":"amount","type":"uint256","internalType":"uint256"},{"name":"claimed","type":"bool","internalType":"bool"},{"name":"refunded","type":"bool","internalType":"bool"}],"stateMutability":"view"},{"type":"function","name":"winningPool","inputs":[{"name":"roundId","type":"uint256","internalType":"uint256"}],"outputs":[{"name":"total","type":"uint256","internalType":"uint256"}],"stateMutability":"view"},{"type":"event","name":"EmergencyRefund","inputs":[{"name":"roundId","type":"uint256","indexed":true,"internalType":"uint256"},{"name":"user","type":"address","indexed":true,"internalType":"address"},{"name":"amount","type":"uint256","indexed":false,"internalType":"uint256"}],"anonymous":false},{"type":"event","name":"FeeRecipientUpdated","inputs":[{"name":"oldRecipient","type":"address","indexed":true,"internalType":"address"},{"name":"newRecipient","type":"address","indexed":true,"internalType":"address"}],"anonymous":false},{"type":"event","name":"FeesCollected","inputs":[{"name":"amount","type":"uint256","indexed":false,"internalType":"uint256"}],"anonymous":false},{"type":"event","name":"OwnershipTransferred","inputs":[{"name":"previousOwner","type":"address","indexed":true,"internalType":"address"},{"name":"newOwner","type":"address","indexed":true,"internalType":"address"}],"anonymous":false},{"type":"event","name":"RoundCreated","inputs":[{"name":"roundId","type":"uint256","indexed":true,"internalType":"uint256"},{"name":"coins","type":"string[]","indexed":false,"internalType":"string[]"},{"name":"deadline","type":"uint256","indexed":false,"internalType":"uint256"}],"anonymous":false},{"type":"event","name":"RoundResolved","inputs":[{"name":"roundId","type":"uint256","indexed":true,"internalType":"uint256"},{"name":"winningCoinIndex","type":"uint256","indexed":false,"internalType":"uint256"},{"name":"winningCoin","type":"string","indexed":false,"internalType":"string"}],"anonymous":false},{"type":"event","name":"WagerPlaced","inputs":[{"name":"roundId","type":"uint256","indexed":true,"internalType":"uint256"},{"name":"user","type":"address","indexed":true,"internalType":"address"},{"name":"coinIndex","type":"uint256","indexed":false,"internalType":"uint256"},{"name":"amount","type":"uint256","indexed":false,"internalType":"uint256"}],"anonymous":false},{"type":"event","name":"WinnerCommitted","inputs":[{"name":"roundId","type":"uint256","indexed":true,"internalType":"uint256"},{"name":"commitmentHash","type":"bytes32","indexed":false,"internalType":"bytes32"}],"anonymous":false},{"type":"event","name":"WinningsClaimed","inputs":[{"name":"roundId","type":"uint256","indexed":true,"internalType":"uint256"},{"name":"user","type":"address","indexed":true,"internalType":"address"},{"name":"amount","type":"uint256","indexed":false,"internalType":"uint256"}],"anonymous":false},{"type":"error","name":"AlreadyClaimed","inputs":[]},{"type":"error","name":"AlreadyCommitted","inputs":[]},{"type":"error","name":"AlreadyRefunded","inputs":[]},{"type":"error","name":"BettingClosed","inputs":[]},{"type":"error","name":"BettingStillOpen","inputs":[]},{"type":"error","name":"CommitmentMismatch","inputs":[]},{"type":"error","name":"DurationTooShort","inputs":[]},{"type":"error","name":"InsufficientWager","inputs":[]},{"type":"error","name":"InvalidCoinIndex","inputs":[]},{"type":"error","name":"NeedAtLeastTwoCoins","inputs":[]},{"type":"error","name":"NoCommitment","inputs":[]},{"type":"error","name":"NoWinnings","inputs":[]},{"type":"error","name":"OwnableInvalidOwner","inputs":[{"name":"owner","type":"address","internalType":"address"}]},{"type":"error","name":"OwnableUnauthorizedAccount","inputs":[{"name":"account","type":"address","internalType":"address"}]},{"type":"error","name":"RefundTooEarly","inputs":[]},{"type":"error","name":"RoundAlreadyResolved","inputs":[]},{"type":"error","name":"RoundNotActive","inputs":[]},{"type":"error","name":"RoundNotResolved","inputs":[]},{"type":"error","name":"TransferFailed","inputs":[]},{"type":"error","name":"ZeroAddress","inputs":[]}],"bytecode":{"object":"0x6080346100c657601f6113d438819003918201601f19168301916001600160401b038311848410176100ca578084926020946040528339810103126100c657516001600160a01b0390818116908190036100c65733156100ae575f5460018060a01b03199033828216175f55604051933391167f8be0079c531659141344cd1fd0a4f28419497f9722a3daafe3b4186f6b6457e05f80a36001805560025416176002556112f590816100df8239f35b604051631e4fbdf760e01b81525f6004820152602490fd5b5f80fd5b634e487b7160e01b5f52604160045260245ffdfe6080806040526004361015610012575f80fd5b5f3560e01c9081630175ccd31461101c575080631900c42b14610c1c578063249d39e91461100057806329331ab814610e305780634002eda614610e135780634690484014610deb5780634ac1440d14610d7b578063677bd9ff14610c4b5780636f15ee7f14610c1c57806370e5deb914610af2578063715018a614610a9b5780637c6145b714610a085780637d57900a146109eb5780638c65c81f146109805780638da5cb5b146109595780638f1327c014610886578063a0e2dff414610744578063add5e6891461068b578063b6a6d17714610728578063bf333f2c1461070c578063caafb3221461068b578063e3773fa51461062a578063e74b981b146105a4578063f2fde38b1461051a578063f5a28891146101875763ffdf417c1461013a575f80fd5b3461018357602061017861014d36611058565b604080518681019485526020850193909352830152909181606084015b03601f198101835282611123565b519020604051908152f35b5f80fd5b346101835760403660031901126101835760043567ffffffffffffffff811161018357366023820112156101835780600401356101c381611145565b916101d16040519384611123565b81835260208301906024829360051b820101903682116101835760248101925b8284106104af578585610202611294565b610e106024351061049d57600282511061048b57600154905f1982146104775760018201600155815f52600360205260405f20908351906801000000000000000082116103f1578254828455808310610405575b505f8381526020812092915b8282106102da57602086807fc7f4f74bb7afe26ef327e09549d92480c3a18f403359c991c817614ce3f278da6102ca8b8a60056102a160243542611271565b918260018201550161010061ff0019825416179055604051928392604084526040840190611072565b90878301520390a2604051908152f35b805180519067ffffffffffffffff82116103f1576102f886546111a8565b90601f918281116103b9575b50602091831160011461034d5792826001949360209386955f92610342575b50505f19600383901b1c191690841b1787555b01940191019092610262565b015190508c80610323565b90865f5260205f20915f5b601f19851681106103a1575083602093600196938796938794601f19811610610389575b505050811b018755610336565b01515f1960f88460031b161c191690558c808061037c565b91926020600181928685015181550194019201610358565b6103e290885f5260205f208480870160051c820192602088106103e8575b0160051c019061127e565b8a610304565b925081926103d7565b634e487b7160e01b5f52604160045260245ffd5b835f5260205f20908382015b8183018110610421575050610256565b8061042e600192546111a8565b8061043b575b5001610411565b601f9081811184146104535750505f81555b89610434565b61046e5f9284845260208420920160051c820185830161127e565b8183555561044d565b634e487b7160e01b5f52601160045260245ffd5b60405163c956490360e01b8152600490fd5b6040516325c3636760e01b8152600490fd5b833567ffffffffffffffff81116101835782019036604383011215610183576024820135906044926104e08361115d565b906104ee6040519283611123565b838252368585830101116101835760208481969582965f940183860137830101528152019301926101f1565b346101835760203660031901126101835761053361110d565b61053b611294565b6001600160a01b0390811690811561058c575f54826bffffffffffffffffffffffff60a01b8216175f55167f8be0079c531659141344cd1fd0a4f28419497f9722a3daafe3b4186f6b6457e05f80a3005b604051631e4fbdf760e01b81525f6004820152602490fd5b34610183576020366003190112610183576105bd61110d565b6105c5611294565b6001600160a01b0390811690811561061857600254826bffffffffffffffffffffffff60a01b821617600255167faaebcf1bfa00580e41d966056b48521fa9f202645c86d4ddf28113e617c1b1d35f80a3005b60405163d92e233d60e01b8152600490fd5b34610183576020366003190112610183576004355f526003602052602060405f2060058101549060ff8260081c16918261067f575b5081610671575b506040519015158152f35b600191500154421082610666565b60ff161591508361065f565b34610183576040366003190112610183576106a46110f7565b6004355f52600460205260405f209060018060a01b03165f5260205260405f208054906107086002600183015492015460405193849360ff808460081c16931691859260609295949195608085019685526020850152151560408401521515910152565b0390f35b34610183575f3660031901126101835760206040516101f48152f35b34610183575f366003190112610183576020604051610e108152f35b61074d36611042565b90805f5260206003815260405f2060ff600582015460081c161561087457600181015442101561086257805484101561083357341561085057825f526004825260405f20335f52825260405f209060018201805492831593841580610845575b61083357876107c79260029661082b575b50503490611271565b9055016107d5348254611271565b9055815f526005815260405f20835f52815260405f206107f6348254611271565b905560405192835234908301527fac7842bbd85e5b7fefb61bdd4c46965c06b188aa772aeba7748e5ec17f23318c60403393a3005b5587896107be565b6040516315464a8360e01b8152600490fd5b5087825414156107ad565b604051634c89f48760e11b8152600490fd5b6040516330e2a62560e11b8152600490fd5b604051633df07da560e01b8152600490fd5b3461018357602080600319360112610183576004355f526003815260405f2060019160018201546002830154600384015460048501549160ff6005870154169386546108d181611145565b976108df604051998a611123565b8189525f908152878120888a015b83831061092f5750505050610911975060405197889760c0895260c0890190611072565b95870152604086015260608501526080840152151560a08301520390f35b8b8a819260405161094b8161094481896111e0565b0382611123565b8152019201920191906108ed565b34610183575f366003190112610183575f546040516001600160a01b039091168152602090f35b34610183576020366003190112610183576004355f52600360205260c060405f2060ff600182015491600281015490600381015460056004830154920154926040519586526020860152604085015260608401528181161515608084015260081c16151560a0820152f35b34610183575f36600319011261018357602060405162093a808152f35b3461018357604036600319011261018357600435602435610a27611294565b815f52600360205260405f2060ff600582015460081c16156108745760048101908154610a89576001015442101561086257817f2b0dc626d67489c4ac469ea0f7b7183bcf4700e418d8d81816933f3cfdc7fc159260209255604051908152a2005b6040516317fd8aab60e31b8152600490fd5b34610183575f36600319011261018357610ab3611294565b5f80546001600160a01b0319811682556001600160a01b03167f8be0079c531659141344cd1fd0a4f28419497f9722a3daafe3b4186f6b6457e08280a3005b3461018357602036600319011261018357600435805f52600360205260405f2090600460205260405f20335f5260205260405f2091600581015460ff8160081c16156108745760ff16610c0a576001015462093a808101809111610477574210610bf8576002820180549260ff8460081c16610be65760010154928315610bd45761ff0019166101001790555f80808085335af1610b8e611179565b5015610bc2576040519182527fbd634c7bdf536d4ef89dad94ea8933d03e5fbb8be4f85fc7699f5859497d793f60203393a3005b6040516312171d8360e31b8152600490fd5b6040516330a748d360e11b8152600490fd5b60405163542f378d60e11b8152600490fd5b604051634a01daaf60e11b8152600490fd5b604051637e28f94960e01b8152600490fd5b3461018357610c2a36611042565b905f52600560205260405f20905f52602052602060405f2054604051908152f35b346101835760208060031936011261018357600435805f526003825260405f20916004815260405f20335f52815260405f209260ff60058201541615610d6957600284019081549460ff8616610d57578054600383015403610bd45760010154908115610bd457600201546101f48082029082820414821517156104775761271090048103908111610477578082029182040361047757835f526006835260405f20548015610d4357600191049460ff19161790555f80808086335af1610d10611179565b5015610bc2577f5380cf6fe903b40c6d5a9e0dfbca2f3a423f0a21520b4d5947ed5169bdba946d906040519384523393a3005b634e487b7160e01b5f52601260045260245ffd5b604051630c8d9eab60e31b8152600490fd5b604051637150b2cd60e11b8152600490fd5b34610183576020366003190112610183576004355f52600360205260405f2060058101549060ff8260081c169182610ddf575b5081610dc2575b6020826040519015158152f35b60019150015462093a808101809111610477574210156020610db5565b60ff1615915082610dae565b34610183575f366003190112610183576002546040516001600160a01b039091168152602090f35b34610183575f366003190112610183576020600154604051908152f35b3461018357610e3e36611058565b90610e47611294565b825f526020906003825260405f2092600584019081549060ff8260081c16156108745760ff8216610c0a5760018601544210610fee578554841015610833576004860154908115610fdc57604051610eb88161016a89820194898d8791606093918352602083015260408201520190565b51902003610fca5760019083600387015560ff1916179055835f526005825260405f20815f52825260405f2054845f526006835260405f205560028301546101f49081810291818304149015171561047757612710900480610f7a575b508254811015610f66577f9d95d9b370cc636ecac07c94460e551d237299c03ac358ae0f769baafd0fe283925f52610f6181835f200160408051948594855284015260408301906111e0565b0390a2005b634e487b7160e01b5f52603260045260245ffd5b5f8080808460018060a01b03600254165af1610f94611179565b5015610bc257827f860c0aa5520013080c2f65981705fcdea474d9f7c3daf954656ed5e65d692d1f91604051908152a184610f15565b604051635054097b60e01b8152600490fd5b604051635b07c98960e01b8152600490fd5b60405163605d9c5960e11b8152600490fd5b34610183575f3660031901126101835760206040516127108152f35b34610183576020366003190112610183576020906004355f526006825260405f20548152f35b6040906003190112610183576004359060243590565b606090600319011261018357600435906024359060443590565b9080825180825260208092019180808360051b8601019501935f905b83821061109e5750505050505090565b90919293949583601f198084840301885288518051908185525f5b8281106110e35750505f818501840152601f0116909101810196810195019392916001019061108e565b8181018501518682018601528894016110b9565b602435906001600160a01b038216820361018357565b600435906001600160a01b038216820361018357565b90601f8019910116810190811067ffffffffffffffff8211176103f157604052565b67ffffffffffffffff81116103f15760051b60200190565b67ffffffffffffffff81116103f157601f01601f191660200190565b3d156111a3573d9061118a8261115d565b916111986040519384611123565b82523d5f602084013e565b606090565b90600182811c921680156111d6575b60208310146111c257565b634e487b7160e01b5f52602260045260245ffd5b91607f16916111b7565b80545f93926111ee826111a8565b918282526020936001916001811690815f146112525750600114611214575b5050505050565b90939495505f92919252835f2092845f945b83861061123e57505050500101905f8080808061120d565b805485870183015294019385908201611226565b60ff19168685015250505090151560051b010191505f8080808061120d565b9190820180921161047757565b818110611289575050565b5f815560010161127e565b5f546001600160a01b031633036112a757565b60405163118cdaa760e01b8152336004820152602490fdfea26469706673582212200d38c8d6467b1a92d7da34acec4ee2218654c1ecf411a4ea10b1a0969b00381164736f6c63430008180033","linkReferences":{}},"methodIdentifiers":{"BPS()":"249d39e9","FEE_BPS()":"bf333f2c","MIN_DURATION()":"b6a6d177","REFUND_TIMEOUT()":"7d57900a","claimWinnings(uint256)":"677bd9ff","coinTotals(uint256,uint256)":"1900c42b","commitWinner(uint256,bytes32)":"7c6145b7","computeCommitment(uint256,uint256,bytes32)":"ffdf417c","createRound(string[],uint256)":"f5a28891","emergencyRefund(uint256)":"70e5deb9","feeRecipient()":"46904840","getCoinTotal(uint256,uint256)":"6f15ee7f","getRound(uint256)":"8f1327c0","getWager(uint256,address)":"caafb322","isBettingOpen(uint256)":"e3773fa5","isRefundAvailable(uint256)":"4ac1440d","nextRoundId()":"4002eda6","owner()":"8da5cb5b","placeWager(uint256,uint256)":"a0e2dff4","renounceOwnership()":"715018a6","resolveRound(uint256,uint256,bytes32)":"29331ab8","rounds(uint256)":"8c65c81f","setFeeRecipient(address)":"e74b981b","transferOwnership(address)":"f2fde38b","wagers(uint256,address)":"add5e689","winningPool(uint256)":"0175ccd3"},"id":0}