{"abi":[{"type":"constructor","inputs":[{"name":"_feeRecipient","type":"address","internalType":"address"}],"stateMutability":"nonpayable"},{"type":"function","name":"BPS","inputs":[],"outputs":[{"name":"","type":"uint256","internalType":"uint256"}],"stateMutability":"view"},{"type":"function","name":"FEE_BPS","inputs":[],"outputs":[{"name":"","type":"uint256","internalType":"uint256"}],"stateMutability":"view"},{"type":"function","name":"MAX_COINS","inputs":[],"outputs":[{"name":"","type":"uint256","internalType":"uint256"}],"stateMutability":"view"},{"type":"function","name":"MIN_DURATION","inputs":[],"outputs":[{"name":"","type":"uint256","internalType":"uint256"}],"stateMutability":"view"},{"type":"function","name":"MIN_WAGER","inputs":[],"outputs":[{"name":"","type":"uint256","internalType":"uint256"}],"stateMutability":"view"},{"type":"function","name":"REFUND_TIMEOUT","inputs":[],"outputs":[{"name":"","type":"uint256","internalType":"uint256"}],"stateMutability":"view"},{"type":"function","name":"cancelRound","inputs":[{"name":"_roundId","type":"uint256","internalType":"uint256"}],"outputs":[],"stateMutability":"nonpayable"},{"type":"function","name":"claimWinnings","inputs":[{"name":"_roundId","type":"uint256","internalType":"uint256"}],"outputs":[],"stateMutability":"nonpayable"},{"type":"function","name":"coinTotals","inputs":[{"name":"roundId","type":"uint256","internalType":"uint256"},{"name":"coinIndex","type":"uint256","internalType":"uint256"}],"outputs":[{"name":"total","type":"uint256","internalType":"uint256"}],"stateMutability":"view"},{"type":"function","name":"commitWinner","inputs":[{"name":"_roundId","type":"uint256","internalType":"uint256"},{"name":"_commitmentHash","type":"bytes32","internalType":"bytes32"}],"outputs":[],"stateMutability":"nonpayable"},{"type":"function","name":"computeCommitment","inputs":[{"name":"_roundId","type":"uint256","internalType":"uint256"},{"name":"_winningCoinIndex","type":"uint256","internalType":"uint256"},{"name":"_salt","type":"bytes32","internalType":"bytes32"}],"outputs":[{"name":"","type":"bytes32","internalType":"bytes32"}],"stateMutability":"pure"},{"type":"function","name":"createRound","inputs":[{"name":"_coins","type":"string[]","internalType":"string[]"},{"name":"_duration","type":"uint256","internalType":"uint256"}],"outputs":[{"name":"roundId","type":"uint256","internalType":"uint256"}],"stateMutability":"nonpayable"},{"type":"function","name":"emergencyRefund","inputs":[{"name":"_roundId","type":"uint256","internalType":"uint256"}],"outputs":[],"stateMutability":"nonpayable"},{"type":"function","name":"feeRecipient","inputs":[],"outputs":[{"name":"","type":"address","internalType":"address"}],"stateMutability":"view"},{"type":"function","name":"getCoinTotal","inputs":[{"name":"_roundId","type":"uint256","internalType":"uint256"},{"name":"_coinIndex","type":"uint256","internalType":"uint256"}],"outputs":[{"name":"","type":"uint256","internalType":"uint256"}],"stateMutability":"view"},{"type":"function","name":"getRound","inputs":[{"name":"_roundId","type":"uint256","internalType":"uint256"}],"outputs":[{"name":"coins_","type":"string[]","internalType":"string[]"},{"name":"deadline_","type":"uint256","internalType":"uint256"},{"name":"totalPot_","type":"uint256","internalType":"uint256"},{"name":"winningCoinIndex_","type":"uint256","internalType":"uint256"},{"name":"commitment_","type":"bytes32","internalType":"bytes32"},{"name":"resolved_","type":"bool","internalType":"bool"},{"name":"cancelled_","type":"bool","internalType":"bool"}],"stateMutability":"view"},{"type":"function","name":"getWager","inputs":[{"name":"_roundId","type":"uint256","internalType":"uint256"},{"name":"_user","type":"address","internalType":"address"}],"outputs":[{"name":"coinIndex_","type":"uint256","internalType":"uint256"},{"name":"amount_","type":"uint256","internalType":"uint256"},{"name":"claimed_","type":"bool","internalType":"bool"},{"name":"refunded_","type":"bool","internalType":"bool"}],"stateMutability":"view"},{"type":"function","name":"isBettingOpen","inputs":[{"name":"_roundId","type":"uint256","internalType":"uint256"}],"outputs":[{"name":"","type":"bool","internalType":"bool"}],"stateMutability":"view"},{"type":"function","name":"isRefundAvailable","inputs":[{"name":"_roundId","type":"uint256","internalType":"uint256"}],"outputs":[{"name":"","type":"bool","internalType":"bool"}],"stateMutability":"view"},{"type":"function","name":"nextRoundId","inputs":[],"outputs":[{"name":"","type":"uint256","internalType":"uint256"}],"stateMutability":"view"},{"type":"function","name":"owner","inputs":[],"outputs":[{"name":"","type":"address","internalType":"address"}],"stateMutability":"view"},{"type":"function","name":"placeWager","inputs":[{"name":"_roundId","type":"uint256","internalType":"uint256"},{"name":"_coinIndex","type":"uint256","internalType":"uint256"}],"outputs":[],"stateMutability":"payable"},{"type":"function","name":"renounceOwnership","inputs":[],"outputs":[],"stateMutability":"nonpayable"},{"type":"function","name":"resolveRound","inputs":[{"name":"_roundId","type":"uint256","internalType":"uint256"},{"name":"_winningCoinIndex","type":"uint256","internalType":"uint256"},{"name":"_salt","type":"bytes32","internalType":"bytes32"}],"outputs":[],"stateMutability":"nonpayable"},{"type":"function","name":"rounds","inputs":[{"name":"roundId","type":"uint256","internalType":"uint256"}],"outputs":[{"name":"deadline","type":"uint256","internalType":"uint256"},{"name":"totalPot","type":"uint256","internalType":"uint256"},{"name":"winningCoinIndex","type":"uint256","internalType":"uint256"},{"name":"commitment","type":"bytes32","internalType":"bytes32"},{"name":"resolved","type":"bool","internalType":"bool"},{"name":"exists","type":"bool","internalType":"bool"},{"name":"cancelled","type":"bool","internalType":"bool"}],"stateMutability":"view"},{"type":"function","name":"setFeeRecipient","inputs":[{"name":"_feeRecipient","type":"address","internalType":"address"}],"outputs":[],"stateMutability":"nonpayable"},{"type":"function","name":"transferOwnership","inputs":[{"name":"newOwner","type":"address","internalType":"address"}],"outputs":[],"stateMutability":"nonpayable"},{"type":"function","name":"wagers","inputs":[{"name":"roundId","type":"uint256","internalType":"uint256"},{"name":"user","type":"address","internalType":"address"}],"outputs":[{"name":"coinIndex","type":"uint256","internalType":"uint256"},{"name":"amount","type":"uint256","internalType":"uint256"},{"name":"claimed","type":"bool","internalType":"bool"},{"name":"refunded","type":"bool","internalType":"bool"}],"stateMutability":"view"},{"type":"function","name":"winningPool","inputs":[{"name":"roundId","type":"uint256","internalType":"uint256"}],"outputs":[{"name":"total","type":"uint256","internalType":"uint256"}],"stateMutability":"view"},{"type":"event","name":"EmergencyRefund","inputs":[{"name":"roundId","type":"uint256","indexed":true,"internalType":"uint256"},{"name":"user","type":"address","indexed":true,"internalType":"address"},{"name":"amount","type":"uint256","indexed":false,"internalType":"uint256"}],"anonymous":false},{"type":"event","name":"FeeRecipientUpdated","inputs":[{"name":"oldRecipient","type":"address","indexed":true,"internalType":"address"},{"name":"newRecipient","type":"address","indexed":true,"internalType":"address"}],"anonymous":false},{"type":"event","name":"FeesCollected","inputs":[{"name":"amount","type":"uint256","indexed":false,"internalType":"uint256"}],"anonymous":false},{"type":"event","name":"OwnershipTransferred","inputs":[{"name":"previousOwner","type":"address","indexed":true,"internalType":"address"},{"name":"newOwner","type":"address","indexed":true,"internalType":"address"}],"anonymous":false},{"type":"event","name":"RoundCancelled","inputs":[{"name":"roundId","type":"uint256","indexed":true,"internalType":"uint256"}],"anonymous":false},{"type":"event","name":"RoundCreated","inputs":[{"name":"roundId","type":"uint256","indexed":true,"internalType":"uint256"},{"name":"coins","type":"string[]","indexed":false,"internalType":"string[]"},{"name":"deadline","type":"uint256","indexed":false,"internalType":"uint256"}],"anonymous":false},{"type":"event","name":"RoundResolved","inputs":[{"name":"roundId","type":"uint256","indexed":true,"internalType":"uint256"},{"name":"winningCoinIndex","type":"uint256","indexed":false,"internalType":"uint256"},{"name":"winningCoin","type":"string","indexed":false,"internalType":"string"}],"anonymous":false},{"type":"event","name":"WagerPlaced","inputs":[{"name":"roundId","type":"uint256","indexed":true,"internalType":"uint256"},{"name":"user","type":"address","indexed":true,"internalType":"address"},{"name":"coinIndex","type":"uint256","indexed":false,"internalType":"uint256"},{"name":"amount","type":"uint256","indexed":false,"internalType":"uint256"}],"anonymous":false},{"type":"event","name":"WinnerCommitted","inputs":[{"name":"roundId","type":"uint256","indexed":true,"internalType":"uint256"},{"name":"commitmentHash","type":"bytes32","indexed":false,"internalType":"bytes32"}],"anonymous":false},{"type":"event","name":"WinningsClaimed","inputs":[{"name":"roundId","type":"uint256","indexed":true,"internalType":"uint256"},{"name":"user","type":"address","indexed":true,"internalType":"address"},{"name":"amount","type":"uint256","indexed":false,"internalType":"uint256"}],"anonymous":false},{"type":"error","name":"AlreadyClaimed","inputs":[]},{"type":"error","name":"AlreadyCommitted","inputs":[]},{"type":"error","name":"AlreadyRefunded","inputs":[]},{"type":"error","name":"BettingClosed","inputs":[]},{"type":"error","name":"BettingStillOpen","inputs":[]},{"type":"error","name":"CommitmentMismatch","inputs":[]},{"type":"error","name":"DurationTooShort","inputs":[]},{"type":"error","name":"InsufficientWager","inputs":[]},{"type":"error","name":"InvalidCoinIndex","inputs":[]},{"type":"error","name":"NeedAtLeastTwoCoins","inputs":[]},{"type":"error","name":"NoCommitment","inputs":[]},{"type":"error","name":"NoWinnersExist","inputs":[]},{"type":"error","name":"NoWinnings","inputs":[]},{"type":"error","name":"OwnableInvalidOwner","inputs":[{"name":"owner","type":"address","internalType":"address"}]},{"type":"error","name":"OwnableUnauthorizedAccount","inputs":[{"name":"account","type":"address","internalType":"address"}]},{"type":"error","name":"RefundTooEarly","inputs":[]},{"type":"error","name":"RoundAlreadyResolved","inputs":[]},{"type":"error","name":"RoundIsCancelled","inputs":[]},{"type":"error","name":"RoundNotActive","inputs":[]},{"type":"error","name":"RoundNotResolved","inputs":[]},{"type":"error","name":"TooManyCoins","inputs":[]},{"type":"error","name":"TransferFailed","inputs":[]},{"type":"error","name":"ZeroAddress","inputs":[]}],"bytecode":{"object":"0x6080346100df57601f6115aa38819003918201601f19168301916001600160401b038311848410176100e3578084926020946040528339810103126100df57516001600160a01b03808216918290036100df5733156100c7575f549060018060a01b03199133838216175f55604051913391167f8be0079c531659141344cd1fd0a4f28419497f9722a3daafe3b4186f6b6457e05f80a36001805582156100b8575060025416176002556040516114b290816100f88239f35b63d92e233d60e01b8152600490fd5b604051631e4fbdf760e01b81525f6004820152602490fd5b5f80fd5b634e487b7160e01b5f52604160045260245ffdfe6080806040526004361015610012575f80fd5b5f3560e01c9081630175ccd3146111d9575080631900c42b14610d6f578063249d39e9146111bd57806329331ab814610fb6578063384302a914610f9b5780634002eda614610f7e5780634690484014610f565780634ac1440d14610ece578063677bd9ff14610d9e5780636f15ee7f14610d6f57806370e5deb914610c3f578063715018a614610be85780637c6145b714610b4a5780637d57900a14610b2d5780637e07ab0914610a9c5780638c65c81f14610a245780638da5cb5b146109fd5780638f1327c01461091b578063a0e2dff4146107b5578063add5e689146106fc578063b6a6d17714610799578063bf333f2c1461077d578063caafb322146106fc578063e3773fa514610686578063e74b981b14610600578063f2fde38b14610576578063f5a28891146101c9578063fdb6cf45146101a85763ffdf417c1461015b575f80fd5b346101a457602061019961016e36611215565b604080518681019485526020850193909352830152909181606084015b03601f1981018352826112e0565b519020604051908152f35b5f80fd5b346101a4575f3660031901126101a457602060405166038d7ea4c680008152f35b346101a45760403660031901126101a45760043567ffffffffffffffff81116101a457366023820112156101a457806004013561020581611302565b9161021360405193846112e0565b81835260208301906024829360051b820101903682116101a45760248101925b82841061050b578585610244611451565b610e10602435106104f95760028251106104e75760148251116104d657600154905f1982146104c25760018201600155815f52600360205260405f209083519068010000000000000000821161043c578254828455808310610450575b505f8381526020812092915b82821061032557602086807fc7f4f74bb7afe26ef327e09549d92480c3a18f403359c991c817614ce3f278da6103158b8a60056102ec6024354261142e565b918260018201550161010061ff001982541617905560405192839260408452604084019061122f565b90878301520390a2604051908152f35b805180519067ffffffffffffffff821161043c576103438654611365565b90601f91828111610404575b5060209183116001146103985792826001949360209386955f9261038d575b50505f19600383901b1c191690841b1787555b019401910190926102ad565b015190508c8061036e565b90865f5260205f20915f5b601f19851681106103ec575083602093600196938796938794601f198116106103d4575b505050811b018755610381565b01515f1960f88460031b161c191690558c80806103c7565b919260206001819286850151815501940192016103a3565b61042d90885f5260205f208480870160051c82019260208810610433575b0160051c019061143b565b8a61034f565b92508192610422565b634e487b7160e01b5f52604160045260245ffd5b835f5260205f20908382015b818301811061046c5750506102a1565b8061047960019254611365565b80610486575b500161045c565b601f90818111841461049e5750505f81555b8961047f565b6104b95f9284845260208420920160051c820185830161143b565b81835555610498565b634e487b7160e01b5f52601160045260245ffd5b60405162b19bd760e51b8152600490fd5b60405163c956490360e01b8152600490fd5b6040516325c3636760e01b8152600490fd5b833567ffffffffffffffff81116101a457820190366043830112156101a45760248201359060449261053c8361131a565b9061054a60405192836112e0565b838252368585830101116101a45760208481969582965f94018386013783010152815201930192610233565b346101a45760203660031901126101a45761058f6112ca565b610597611451565b6001600160a01b039081169081156105e8575f54826bffffffffffffffffffffffff60a01b8216175f55167f8be0079c531659141344cd1fd0a4f28419497f9722a3daafe3b4186f6b6457e05f80a3005b604051631e4fbdf760e01b81525f6004820152602490fd5b346101a45760203660031901126101a4576106196112ca565b610621611451565b6001600160a01b0390811690811561067457600254826bffffffffffffffffffffffff60a01b821617600255167faaebcf1bfa00580e41d966056b48521fa9f202645c86d4ddf28113e617c1b1d35f80a3005b60405163d92e233d60e01b8152600490fd5b346101a45760203660031901126101a4576004355f526003602052602060405f2060058101549060ff8260081c1691826106f0575b826106e1575b50816106d3575b506040519015158152f35b6001915001544210826106c8565b60101c60ff16159150836106c1565b60ff81161592506106bb565b346101a45760403660031901126101a4576107156112b4565b6004355f52600460205260405f209060018060a01b03165f5260205260405f208054906107796002600183015492015460405193849360ff808460081c16931691859260609295949195608085019685526020850152151560408401521515910152565b0390f35b346101a4575f3660031901126101a45760206040516101f48152f35b346101a4575f3660031901126101a4576020604051610e108152f35b6107be366111ff565b90805f5260206003815260405f20600581015460ff8160081c16156109095760101c60ff166108f85760018101544210156108e65780548410156108b75766038d7ea4c6800034106108d457825f526004825260405f20335f52825260405f2090600182018054928315938415806108c9575b6108b7578761084b926002966108af575b5050349061142e565b90550161085934825461142e565b9055815f526005815260405f20835f52815260405f2061087a34825461142e565b905560405192835234908301527fac7842bbd85e5b7fefb61bdd4c46965c06b188aa772aeba7748e5ec17f23318c60403393a3005b558789610842565b6040516315464a8360e01b8152600490fd5b508782541415610831565b604051634c89f48760e11b8152600490fd5b6040516330e2a62560e11b8152600490fd5b6040516218635360eb1b8152600490fd5b604051633df07da560e01b8152600490fd5b346101a4576020806003193601126101a4576004355f526003815260405f2060019160018201546002830154600384015490600485015492600586015496865461096481611302565b97610972604051998a6112e0565b8189525f908152878120888a015b8383106109d3576109a78b8b60ff8f8d8d8d8d60405198899860e08a5260e08a019061122f565b96880152604087015260608601526080850152818116151560a085015260101c16151560c08301520390f35b848a81926040516109ef816109e8818961139d565b03826112e0565b815201920192019190610980565b346101a4575f3660031901126101a4575f546040516001600160a01b039091168152602090f35b346101a45760203660031901126101a4576004355f52600360205260e060405f2060ff6001820154916002810154906003810154600560048301549201549260405195865260208601526040850152606084015281811615156080840152818160081c16151560a084015260101c16151560c0820152f35b346101a45760203660031901126101a457600435610ab8611451565b805f526003602052600560405f2001805460ff8160081c16156109095760ff8116610b1b5760ff8160101c166108f85762ff00001916620100001790557fbf7aeff89cf7a4c3d0145879e39aa6a19e8e64ed585090ef86bf31f4d2ae57bf5f80a2005b604051637e28f94960e01b8152600490fd5b346101a4575f3660031901126101a457602060405162093a808152f35b346101a45760403660031901126101a457600435602435610b69611451565b815f52600360205260405f20600581015460ff8160081c16156109095760101c60ff166108f85760048101908154610bd657600101544210156108e657817f2b0dc626d67489c4ac469ea0f7b7183bcf4700e418d8d81816933f3cfdc7fc159260209255604051908152a2005b6040516317fd8aab60e31b8152600490fd5b346101a4575f3660031901126101a457610c00611451565b5f80546001600160a01b0319811682556001600160a01b03167f8be0079c531659141344cd1fd0a4f28419497f9722a3daafe3b4186f6b6457e08280a3005b346101a45760203660031901126101a457600435805f52600360205260405f2090600460205260405f20335f5260205260405f2091600581015460ff8160081c16156109095760ff8116610b1b5760101c60ff16159081610d54575b50610d42576002820180549260ff8460081c16610d305760010154928315610d1e5761ff0019166101001790555f80808085335af1610cd8611336565b5015610d0c576040519182527fbd634c7bdf536d4ef89dad94ea8933d03e5fbb8be4f85fc7699f5859497d793f60203393a3005b6040516312171d8360e31b8152600490fd5b6040516330a748d360e11b8152600490fd5b60405163542f378d60e11b8152600490fd5b604051634a01daaf60e11b8152600490fd5b60019150015462093a8081018091116104c257421083610c9b565b346101a457610d7d366111ff565b905f52600560205260405f20905f52602052602060405f2054604051908152f35b346101a4576020806003193601126101a457600435805f526003825260405f20916004815260405f20335f52815260405f209260ff60058201541615610ebc57600284019081549460ff8616610eaa578054600383015403610d1e5760010154908115610d1e57600201546101f48082029082820414821517156104c257612710900481039081116104c257808202918204036104c257835f526006835260405f20548015610e9657600191049460ff19161790555f80808086335af1610e63611336565b5015610d0c577f5380cf6fe903b40c6d5a9e0dfbca2f3a423f0a21520b4d5947ed5169bdba946d906040519384523393a3005b634e487b7160e01b5f52601260045260245ffd5b604051630c8d9eab60e31b8152600490fd5b604051637150b2cd60e11b8152600490fd5b346101a45760203660031901126101a4576004355f52600360205260405f20600581015460ff8160081c169081610f4a575b81610f13575b6020826040519015158152f35b60ff915060101c16908115610f2d575b5060209082610f06565b60019150015462093a8081018091116104c2574210156020610f23565b60ff8116159150610f00565b346101a4575f3660031901126101a4576002546040516001600160a01b039091168152602090f35b346101a4575f3660031901126101a4576020600154604051908152f35b346101a4575f3660031901126101a457602060405160148152f35b346101a457610fc436611215565b90610fcd611451565b825f526020906003825260405f2092600584019081549060ff8260081c16156109095760ff8260101c166108f85760ff8216610b1b57600186015442106111ab5785548410156108b7576004860154908115611199576040516110498161018b89820194898d8791606093918352602083015260408201520190565b5190200361118757855f526005845260405f20835f52845260405f2054156111755760019083600387015560ff1916179055835f526005825260405f20815f52825260405f2054845f526006835260405f205560028301546101f4908181029181830414901517156104c257612710900480611125575b508254811015611111577f9d95d9b370cc636ecac07c94460e551d237299c03ac358ae0f769baafd0fe283925f5261110c81835f2001604080519485948552840152604083019061139d565b0390a2005b634e487b7160e01b5f52603260045260245ffd5b5f8080808460018060a01b03600254165af161113f611336565b5015610d0c57827f860c0aa5520013080c2f65981705fcdea474d9f7c3daf954656ed5e65d692d1f91604051908152a1846110c0565b60405163055b9c0f60e11b8152600490fd5b604051635054097b60e01b8152600490fd5b604051635b07c98960e01b8152600490fd5b60405163605d9c5960e11b8152600490fd5b346101a4575f3660031901126101a45760206040516127108152f35b346101a45760203660031901126101a4576020906004355f526006825260405f20548152f35b60409060031901126101a4576004359060243590565b60609060031901126101a457600435906024359060443590565b9080825180825260208092019180808360051b8601019501935f905b83821061125b5750505050505090565b90919293949583601f198084840301885288518051908185525f5b8281106112a05750505f818501840152601f0116909101810196810195019392916001019061124b565b818101850151868201860152889401611276565b602435906001600160a01b03821682036101a457565b600435906001600160a01b03821682036101a457565b90601f8019910116810190811067ffffffffffffffff82111761043c57604052565b67ffffffffffffffff811161043c5760051b60200190565b67ffffffffffffffff811161043c57601f01601f191660200190565b3d15611360573d906113478261131a565b9161135560405193846112e0565b82523d5f602084013e565b606090565b90600182811c92168015611393575b602083101461137f57565b634e487b7160e01b5f52602260045260245ffd5b91607f1691611374565b80545f93926113ab82611365565b918282526020936001916001811690815f1461140f57506001146113d1575b5050505050565b90939495505f92919252835f2092845f945b8386106113fb57505050500101905f808080806113ca565b8054858701830152940193859082016113e3565b60ff19168685015250505090151560051b010191505f808080806113ca565b919082018092116104c257565b818110611446575050565b5f815560010161143b565b5f546001600160a01b0316330361146457565b60405163118cdaa760e01b8152336004820152602490fdfea2646970667358221220b8093523253b9fd5f96591ea537c869a067e202cdc2059a7a30d7d26aa2b467f64736f6c63430008180033","linkReferences":{}},"methodIdentifiers":{"BPS()":"249d39e9","FEE_BPS()":"bf333f2c","MAX_COINS()":"384302a9","MIN_DURATION()":"b6a6d177","MIN_WAGER()":"fdb6cf45","REFUND_TIMEOUT()":"7d57900a","cancelRound(uint256)":"7e07ab09","claimWinnings(uint256)":"677bd9ff","coinTotals(uint256,uint256)":"1900c42b","commitWinner(uint256,bytes32)":"7c6145b7","computeCommitment(uint256,uint256,bytes32)":"ffdf417c","createRound(string[],uint256)":"f5a28891","emergencyRefund(uint256)":"70e5deb9","feeRecipient()":"46904840","getCoinTotal(uint256,uint256)":"6f15ee7f","getRound(uint256)":"8f1327c0","getWager(uint256,address)":"caafb322","isBettingOpen(uint256)":"e3773fa5","isRefundAvailable(uint256)":"4ac1440d","nextRoundId()":"4002eda6","owner()":"8da5cb5b","placeWager(uint256,uint256)":"a0e2dff4","renounceOwnership()":"715018a6","resolveRound(uint256,uint256,bytes32)":"29331ab8","rounds(uint256)":"8c65c81f","setFeeRecipient(address)":"e74b981b","transferOwnership(address)":"f2fde38b","wagers(uint256,address)":"add5e689","winningPool(uint256)":"0175ccd3"},"id":0}