{"abi":[{"type":"constructor","inputs":[{"name":"_feeRecipient","type":"address","internalType":"address"}],"stateMutability":"nonpayable"},{"type":"function","name":"BPS","inputs":[],"outputs":[{"name":"","type":"uint256","internalType":"uint256"}],"stateMutability":"view"},{"type":"function","name":"FEE_BPS","inputs":[],"outputs":[{"name":"","type":"uint256","internalType":"uint256"}],"stateMutability":"view"},{"type":"function","name":"MAX_COINS","inputs":[],"outputs":[{"name":"","type":"uint256","internalType":"uint256"}],"stateMutability":"view"},{"type":"function","name":"MIN_DURATION","inputs":[],"outputs":[{"name":"","type":"uint256","internalType":"uint256"}],"stateMutability":"view"},{"type":"function","name":"REFUND_TIMEOUT","inputs":[],"outputs":[{"name":"","type":"uint256","internalType":"uint256"}],"stateMutability":"view"},{"type":"function","name":"cancelRound","inputs":[{"name":"_roundId","type":"uint256","internalType":"uint256"}],"outputs":[],"stateMutability":"nonpayable"},{"type":"function","name":"claimWinnings","inputs":[{"name":"_roundId","type":"uint256","internalType":"uint256"}],"outputs":[],"stateMutability":"nonpayable"},{"type":"function","name":"coinTotals","inputs":[{"name":"roundId","type":"uint256","internalType":"uint256"},{"name":"coinIndex","type":"uint256","internalType":"uint256"}],"outputs":[{"name":"total","type":"uint256","internalType":"uint256"}],"stateMutability":"view"},{"type":"function","name":"commitWinner","inputs":[{"name":"_roundId","type":"uint256","internalType":"uint256"},{"name":"_commitmentHash","type":"bytes32","internalType":"bytes32"}],"outputs":[],"stateMutability":"nonpayable"},{"type":"function","name":"computeCommitment","inputs":[{"name":"_roundId","type":"uint256","internalType":"uint256"},{"name":"_winningCoinIndex","type":"uint256","internalType":"uint256"},{"name":"_salt","type":"bytes32","internalType":"bytes32"}],"outputs":[{"name":"","type":"bytes32","internalType":"bytes32"}],"stateMutability":"pure"},{"type":"function","name":"createRound","inputs":[{"name":"_coins","type":"string[]","internalType":"string[]"},{"name":"_duration","type":"uint256","internalType":"uint256"}],"outputs":[{"name":"roundId","type":"uint256","internalType":"uint256"}],"stateMutability":"nonpayable"},{"type":"function","name":"emergencyRefund","inputs":[{"name":"_roundId","type":"uint256","internalType":"uint256"}],"outputs":[],"stateMutability":"nonpayable"},{"type":"function","name":"feeRecipient","inputs":[],"outputs":[{"name":"","type":"address","internalType":"address"}],"stateMutability":"view"},{"type":"function","name":"getCoinTotal","inputs":[{"name":"_roundId","type":"uint256","internalType":"uint256"},{"name":"_coinIndex","type":"uint256","internalType":"uint256"}],"outputs":[{"name":"","type":"uint256","internalType":"uint256"}],"stateMutability":"view"},{"type":"function","name":"getRound","inputs":[{"name":"_roundId","type":"uint256","internalType":"uint256"}],"outputs":[{"name":"coins_","type":"string[]","internalType":"string[]"},{"name":"deadline_","type":"uint256","internalType":"uint256"},{"name":"totalPot_","type":"uint256","internalType":"uint256"},{"name":"winningCoinIndex_","type":"uint256","internalType":"uint256"},{"name":"commitment_","type":"bytes32","internalType":"bytes32"},{"name":"resolved_","type":"bool","internalType":"bool"},{"name":"cancelled_","type":"bool","internalType":"bool"}],"stateMutability":"view"},{"type":"function","name":"getWager","inputs":[{"name":"_roundId","type":"uint256","internalType":"uint256"},{"name":"_user","type":"address","internalType":"address"}],"outputs":[{"name":"coinIndex_","type":"uint256","internalType":"uint256"},{"name":"amount_","type":"uint256","internalType":"uint256"},{"name":"claimed_","type":"bool","internalType":"bool"},{"name":"refunded_","type":"bool","internalType":"bool"}],"stateMutability":"view"},{"type":"function","name":"isBettingOpen","inputs":[{"name":"_roundId","type":"uint256","internalType":"uint256"}],"outputs":[{"name":"","type":"bool","internalType":"bool"}],"stateMutability":"view"},{"type":"function","name":"isRefundAvailable","inputs":[{"name":"_roundId","type":"uint256","internalType":"uint256"}],"outputs":[{"name":"","type":"bool","internalType":"bool"}],"stateMutability":"view"},{"type":"function","name":"nextRoundId","inputs":[],"outputs":[{"name":"","type":"uint256","internalType":"uint256"}],"stateMutability":"view"},{"type":"function","name":"owner","inputs":[],"outputs":[{"name":"","type":"address","internalType":"address"}],"stateMutability":"view"},{"type":"function","name":"placeWager","inputs":[{"name":"_roundId","type":"uint256","internalType":"uint256"},{"name":"_coinIndex","type":"uint256","internalType":"uint256"}],"outputs":[],"stateMutability":"payable"},{"type":"function","name":"renounceOwnership","inputs":[],"outputs":[],"stateMutability":"nonpayable"},{"type":"function","name":"resolveRound","inputs":[{"name":"_roundId","type":"uint256","internalType":"uint256"},{"name":"_winningCoinIndex","type":"uint256","internalType":"uint256"},{"name":"_salt","type":"bytes32","internalType":"bytes32"}],"outputs":[],"stateMutability":"nonpayable"},{"type":"function","name":"rounds","inputs":[{"name":"roundId","type":"uint256","internalType":"uint256"}],"outputs":[{"name":"deadline","type":"uint256","internalType":"uint256"},{"name":"totalPot","type":"uint256","internalType":"uint256"},{"name":"winningCoinIndex","type":"uint256","internalType":"uint256"},{"name":"commitment","type":"bytes32","internalType":"bytes32"},{"name":"resolved","type":"bool","internalType":"bool"},{"name":"exists","type":"bool","internalType":"bool"},{"name":"cancelled","type":"bool","internalType":"bool"}],"stateMutability":"view"},{"type":"function","name":"setFeeRecipient","inputs":[{"name":"_feeRecipient","type":"address","internalType":"address"}],"outputs":[],"stateMutability":"nonpayable"},{"type":"function","name":"transferOwnership","inputs":[{"name":"newOwner","type":"address","internalType":"address"}],"outputs":[],"stateMutability":"nonpayable"},{"type":"function","name":"wagers","inputs":[{"name":"roundId","type":"uint256","internalType":"uint256"},{"name":"user","type":"address","internalType":"address"}],"outputs":[{"name":"coinIndex","type":"uint256","internalType":"uint256"},{"name":"amount","type":"uint256","internalType":"uint256"},{"name":"claimed","type":"bool","internalType":"bool"},{"name":"refunded","type":"bool","internalType":"bool"}],"stateMutability":"view"},{"type":"function","name":"winningPool","inputs":[{"name":"roundId","type":"uint256","internalType":"uint256"}],"outputs":[{"name":"total","type":"uint256","internalType":"uint256"}],"stateMutability":"view"},{"type":"event","name":"EmergencyRefund","inputs":[{"name":"roundId","type":"uint256","indexed":true,"internalType":"uint256"},{"name":"user","type":"address","indexed":true,"internalType":"address"},{"name":"amount","type":"uint256","indexed":false,"internalType":"uint256"}],"anonymous":false},{"type":"event","name":"FeeRecipientUpdated","inputs":[{"name":"oldRecipient","type":"address","indexed":true,"internalType":"address"},{"name":"newRecipient","type":"address","indexed":true,"internalType":"address"}],"anonymous":false},{"type":"event","name":"FeesCollected","inputs":[{"name":"amount","type":"uint256","indexed":false,"internalType":"uint256"}],"anonymous":false},{"type":"event","name":"OwnershipTransferred","inputs":[{"name":"previousOwner","type":"address","indexed":true,"internalType":"address"},{"name":"newOwner","type":"address","indexed":true,"internalType":"address"}],"anonymous":false},{"type":"event","name":"RoundCancelled","inputs":[{"name":"roundId","type":"uint256","indexed":true,"internalType":"uint256"}],"anonymous":false},{"type":"event","name":"RoundCreated","inputs":[{"name":"roundId","type":"uint256","indexed":true,"internalType":"uint256"},{"name":"coins","type":"string[]","indexed":false,"internalType":"string[]"},{"name":"deadline","type":"uint256","indexed":false,"internalType":"uint256"}],"anonymous":false},{"type":"event","name":"RoundResolved","inputs":[{"name":"roundId","type":"uint256","indexed":true,"internalType":"uint256"},{"name":"winningCoinIndex","type":"uint256","indexed":false,"internalType":"uint256"},{"name":"winningCoin","type":"string","indexed":false,"internalType":"string"}],"anonymous":false},{"type":"event","name":"WagerPlaced","inputs":[{"name":"roundId","type":"uint256","indexed":true,"internalType":"uint256"},{"name":"user","type":"address","indexed":true,"internalType":"address"},{"name":"coinIndex","type":"uint256","indexed":false,"internalType":"uint256"},{"name":"amount","type":"uint256","indexed":false,"internalType":"uint256"}],"anonymous":false},{"type":"event","name":"WinnerCommitted","inputs":[{"name":"roundId","type":"uint256","indexed":true,"internalType":"uint256"},{"name":"commitmentHash","type":"bytes32","indexed":false,"internalType":"bytes32"}],"anonymous":false},{"type":"event","name":"WinningsClaimed","inputs":[{"name":"roundId","type":"uint256","indexed":true,"internalType":"uint256"},{"name":"user","type":"address","indexed":true,"internalType":"address"},{"name":"amount","type":"uint256","indexed":false,"internalType":"uint256"}],"anonymous":false},{"type":"error","name":"AlreadyClaimed","inputs":[]},{"type":"error","name":"AlreadyCommitted","inputs":[]},{"type":"error","name":"AlreadyRefunded","inputs":[]},{"type":"error","name":"BettingClosed","inputs":[]},{"type":"error","name":"BettingStillOpen","inputs":[]},{"type":"error","name":"CommitmentMismatch","inputs":[]},{"type":"error","name":"DurationTooShort","inputs":[]},{"type":"error","name":"InsufficientWager","inputs":[]},{"type":"error","name":"InvalidCoinIndex","inputs":[]},{"type":"error","name":"NeedAtLeastTwoCoins","inputs":[]},{"type":"error","name":"NoCommitment","inputs":[]},{"type":"error","name":"NoWinnersExist","inputs":[]},{"type":"error","name":"NoWinnings","inputs":[]},{"type":"error","name":"OwnableInvalidOwner","inputs":[{"name":"owner","type":"address","internalType":"address"}]},{"type":"error","name":"OwnableUnauthorizedAccount","inputs":[{"name":"account","type":"address","internalType":"address"}]},{"type":"error","name":"RefundTooEarly","inputs":[]},{"type":"error","name":"RoundAlreadyResolved","inputs":[]},{"type":"error","name":"RoundIsCancelled","inputs":[]},{"type":"error","name":"RoundNotActive","inputs":[]},{"type":"error","name":"RoundNotResolved","inputs":[]},{"type":"error","name":"TooManyCoins","inputs":[]},{"type":"error","name":"TransferFailed","inputs":[]},{"type":"error","name":"ZeroAddress","inputs":[]}],"bytecode":{"object":"0x6080346100df57601f61153338819003918201601f19168301916001600160401b038311848410176100e3578084926020946040528339810103126100df57516001600160a01b03808216918290036100df5733156100c7575f549060018060a01b03199133838216175f55604051913391167f8be0079c531659141344cd1fd0a4f28419497f9722a3daafe3b4186f6b6457e05f80a36001805582156100b85750600254161760025560405161143b90816100f88239f35b63d92e233d60e01b8152600490fd5b604051631e4fbdf760e01b81525f6004820152602490fd5b5f80fd5b634e487b7160e01b5f52604160045260245ffdfe6080806040526004361015610012575f80fd5b5f3560e01c9081630175ccd314611162575080631900c42b14610d1b578063249d39e91461114657806329331ab814610f4a578063384302a914610f2f5780634002eda614610f125780634690484014610eea5780634ac1440d14610e7a578063677bd9ff14610d4a5780636f15ee7f14610d1b57806370e5deb914610beb578063715018a614610b945780637c6145b714610b015780637d57900a14610ae45780637e07ab0914610a535780638c65c81f146109db5780638da5cb5b146109b45780638f1327c0146108d2578063a0e2dff414610774578063add5e689146106bb578063b6a6d17714610758578063bf333f2c1461073c578063caafb322146106bb578063e3773fa51461065a578063e74b981b146105d4578063f2fde38b1461054a578063f5a288911461019d5763ffdf417c14610150575f80fd5b3461019957602061018e6101633661119e565b604080518681019485526020850193909352830152909181606084015b03601f198101835282611269565b519020604051908152f35b5f80fd5b346101995760403660031901126101995760043567ffffffffffffffff811161019957366023820112156101995780600401356101d98161128b565b916101e76040519384611269565b81835260208301906024829360051b820101903682116101995760248101925b8284106104df5785856102186113da565b610e10602435106104cd5760028251106104bb5760148251116104aa57600154905f1982146104965760018201600155815f52600360205260405f2090835190680100000000000000008211610410578254828455808310610424575b505f8381526020812092915b8282106102f957602086807fc7f4f74bb7afe26ef327e09549d92480c3a18f403359c991c817614ce3f278da6102e98b8a60056102c0602435426113b7565b918260018201550161010061ff00198254161790556040519283926040845260408401906111b8565b90878301520390a2604051908152f35b805180519067ffffffffffffffff82116104105761031786546112ee565b90601f918281116103d8575b50602091831160011461036c5792826001949360209386955f92610361575b50505f19600383901b1c191690841b1787555b01940191019092610281565b015190508c80610342565b90865f5260205f20915f5b601f19851681106103c0575083602093600196938796938794601f198116106103a8575b505050811b018755610355565b01515f1960f88460031b161c191690558c808061039b565b91926020600181928685015181550194019201610377565b61040190885f5260205f208480870160051c82019260208810610407575b0160051c01906113c4565b8a610323565b925081926103f6565b634e487b7160e01b5f52604160045260245ffd5b835f5260205f20908382015b8183018110610440575050610275565b8061044d600192546112ee565b8061045a575b5001610430565b601f9081811184146104725750505f81555b89610453565b61048d5f9284845260208420920160051c82018583016113c4565b8183555561046c565b634e487b7160e01b5f52601160045260245ffd5b60405162b19bd760e51b8152600490fd5b60405163c956490360e01b8152600490fd5b6040516325c3636760e01b8152600490fd5b833567ffffffffffffffff8111610199578201903660438301121561019957602482013590604492610510836112a3565b9061051e6040519283611269565b838252368585830101116101995760208481969582965f94018386013783010152815201930192610207565b3461019957602036600319011261019957610563611253565b61056b6113da565b6001600160a01b039081169081156105bc575f54826bffffffffffffffffffffffff60a01b8216175f55167f8be0079c531659141344cd1fd0a4f28419497f9722a3daafe3b4186f6b6457e05f80a3005b604051631e4fbdf760e01b81525f6004820152602490fd5b34610199576020366003190112610199576105ed611253565b6105f56113da565b6001600160a01b0390811690811561064857600254826bffffffffffffffffffffffff60a01b821617600255167faaebcf1bfa00580e41d966056b48521fa9f202645c86d4ddf28113e617c1b1d35f80a3005b60405163d92e233d60e01b8152600490fd5b34610199576020366003190112610199576004355f526003602052602060405f2060058101549060ff8260081c1691826106af575b50816106a1575b506040519015158152f35b600191500154421082610696565b60ff161591508361068f565b34610199576040366003190112610199576106d461123d565b6004355f52600460205260405f209060018060a01b03165f5260205260405f208054906107386002600183015492015460405193849360ff808460081c16931691859260609295949195608085019685526020850152151560408401521515910152565b0390f35b34610199575f3660031901126101995760206040516101f48152f35b34610199575f366003190112610199576020604051610e108152f35b61077d36611188565b90805f5260206003815260405f20600581015460ff8160081c16156108c05760101c60ff166108af57600181015442101561089d57805484101561086e57341561088b57825f526004825260405f20335f52825260405f209060018201805492831593841580610880575b61086e578761080292600296610866575b505034906113b7565b9055016108103482546113b7565b9055815f526005815260405f20835f52815260405f206108313482546113b7565b905560405192835234908301527fac7842bbd85e5b7fefb61bdd4c46965c06b188aa772aeba7748e5ec17f23318c60403393a3005b5587896107f9565b6040516315464a8360e01b8152600490fd5b5087825414156107e8565b604051634c89f48760e11b8152600490fd5b6040516330e2a62560e11b8152600490fd5b6040516218635360eb1b8152600490fd5b604051633df07da560e01b8152600490fd5b3461019957602080600319360112610199576004355f526003815260405f2060019160018201546002830154600384015490600485015492600586015496865461091b8161128b565b97610929604051998a611269565b8189525f908152878120888a015b83831061098a5761095e8b8b60ff8f8d8d8d8d60405198899860e08a5260e08a01906111b8565b96880152604087015260608601526080850152818116151560a085015260101c16151560c08301520390f35b848a81926040516109a68161099f8189611326565b0382611269565b815201920192019190610937565b34610199575f366003190112610199575f546040516001600160a01b039091168152602090f35b34610199576020366003190112610199576004355f52600360205260e060405f2060ff6001820154916002810154906003810154600560048301549201549260405195865260208601526040850152606084015281811615156080840152818160081c16151560a084015260101c16151560c0820152f35b3461019957602036600319011261019957600435610a6f6113da565b805f526003602052600560405f2001805460ff8160081c16156108c05760ff8116610ad25760ff8160101c166108af5762ff00001916620100001790557fbf7aeff89cf7a4c3d0145879e39aa6a19e8e64ed585090ef86bf31f4d2ae57bf5f80a2005b604051637e28f94960e01b8152600490fd5b34610199575f36600319011261019957602060405162093a808152f35b3461019957604036600319011261019957600435602435610b206113da565b815f52600360205260405f2060ff600582015460081c16156108c05760048101908154610b82576001015442101561089d57817f2b0dc626d67489c4ac469ea0f7b7183bcf4700e418d8d81816933f3cfdc7fc159260209255604051908152a2005b6040516317fd8aab60e31b8152600490fd5b34610199575f36600319011261019957610bac6113da565b5f80546001600160a01b0319811682556001600160a01b03167f8be0079c531659141344cd1fd0a4f28419497f9722a3daafe3b4186f6b6457e08280a3005b3461019957602036600319011261019957600435805f52600360205260405f2090600460205260405f20335f5260205260405f2091600581015460ff8160081c16156108c05760ff8116610ad25760101c60ff16159081610d00575b50610cee576002820180549260ff8460081c16610cdc5760010154928315610cca5761ff0019166101001790555f80808085335af1610c846112bf565b5015610cb8576040519182527fbd634c7bdf536d4ef89dad94ea8933d03e5fbb8be4f85fc7699f5859497d793f60203393a3005b6040516312171d8360e31b8152600490fd5b6040516330a748d360e11b8152600490fd5b60405163542f378d60e11b8152600490fd5b604051634a01daaf60e11b8152600490fd5b60019150015462093a80810180911161049657421083610c47565b3461019957610d2936611188565b905f52600560205260405f20905f52602052602060405f2054604051908152f35b346101995760208060031936011261019957600435805f526003825260405f20916004815260405f20335f52815260405f209260ff60058201541615610e6857600284019081549460ff8616610e56578054600383015403610cca5760010154908115610cca57600201546101f48082029082820414821517156104965761271090048103908111610496578082029182040361049657835f526006835260405f20548015610e4257600191049460ff19161790555f80808086335af1610e0f6112bf565b5015610cb8577f5380cf6fe903b40c6d5a9e0dfbca2f3a423f0a21520b4d5947ed5169bdba946d906040519384523393a3005b634e487b7160e01b5f52601260045260245ffd5b604051630c8d9eab60e31b8152600490fd5b604051637150b2cd60e11b8152600490fd5b34610199576020366003190112610199576004355f52600360205260405f2060058101549060ff8260081c169182610ede575b5081610ec1575b6020826040519015158152f35b60019150015462093a808101809111610496574210156020610eb4565b60ff1615915082610ead565b34610199575f366003190112610199576002546040516001600160a01b039091168152602090f35b34610199575f366003190112610199576020600154604051908152f35b34610199575f36600319011261019957602060405160148152f35b3461019957610f583661119e565b90610f616113da565b825f526020906003825260405f2092600584019081549060ff8260081c16156108c05760ff8216610ad2576001860154421061113457855484101561086e57600486015490811561112257604051610fd28161018089820194898d8791606093918352602083015260408201520190565b5190200361111057855f526005845260405f20835f52845260405f2054156110fe5760019083600387015560ff1916179055835f526005825260405f20815f52825260405f2054845f526006835260405f205560028301546101f490818102918183041490151715610496576127109004806110ae575b50825481101561109a577f9d95d9b370cc636ecac07c94460e551d237299c03ac358ae0f769baafd0fe283925f5261109581835f20016040805194859485528401526040830190611326565b0390a2005b634e487b7160e01b5f52603260045260245ffd5b5f8080808460018060a01b03600254165af16110c86112bf565b5015610cb857827f860c0aa5520013080c2f65981705fcdea474d9f7c3daf954656ed5e65d692d1f91604051908152a184611049565b60405163055b9c0f60e11b8152600490fd5b604051635054097b60e01b8152600490fd5b604051635b07c98960e01b8152600490fd5b60405163605d9c5960e11b8152600490fd5b34610199575f3660031901126101995760206040516127108152f35b34610199576020366003190112610199576020906004355f526006825260405f20548152f35b6040906003190112610199576004359060243590565b606090600319011261019957600435906024359060443590565b9080825180825260208092019180808360051b8601019501935f905b8382106111e45750505050505090565b90919293949583601f198084840301885288518051908185525f5b8281106112295750505f818501840152601f011690910181019681019501939291600101906111d4565b8181018501518682018601528894016111ff565b602435906001600160a01b038216820361019957565b600435906001600160a01b038216820361019957565b90601f8019910116810190811067ffffffffffffffff82111761041057604052565b67ffffffffffffffff81116104105760051b60200190565b67ffffffffffffffff811161041057601f01601f191660200190565b3d156112e9573d906112d0826112a3565b916112de6040519384611269565b82523d5f602084013e565b606090565b90600182811c9216801561131c575b602083101461130857565b634e487b7160e01b5f52602260045260245ffd5b91607f16916112fd565b80545f9392611334826112ee565b918282526020936001916001811690815f14611398575060011461135a575b5050505050565b90939495505f92919252835f2092845f945b83861061138457505050500101905f80808080611353565b80548587018301529401938590820161136c565b60ff19168685015250505090151560051b010191505f80808080611353565b9190820180921161049657565b8181106113cf575050565b5f81556001016113c4565b5f546001600160a01b031633036113ed57565b60405163118cdaa760e01b8152336004820152602490fdfea2646970667358221220dae5133fe500dd10ee34ae49ceac50097263c3fa965f39335f682378bcd59cdb64736f6c63430008180033","linkReferences":{}},"methodIdentifiers":{"BPS()":"249d39e9","FEE_BPS()":"bf333f2c","MAX_COINS()":"384302a9","MIN_DURATION()":"b6a6d177","REFUND_TIMEOUT()":"7d57900a","cancelRound(uint256)":"7e07ab09","claimWinnings(uint256)":"677bd9ff","coinTotals(uint256,uint256)":"1900c42b","commitWinner(uint256,bytes32)":"7c6145b7","computeCommitment(uint256,uint256,bytes32)":"ffdf417c","createRound(string[],uint256)":"f5a28891","emergencyRefund(uint256)":"70e5deb9","feeRecipient()":"46904840","getCoinTotal(uint256,uint256)":"6f15ee7f","getRound(uint256)":"8f1327c0","getWager(uint256,address)":"caafb322","isBettingOpen(uint256)":"e3773fa5","isRefundAvailable(uint256)":"4ac1440d","nextRoundId()":"4002eda6","owner()":"8da5cb5b","placeWager(uint256,uint256)":"a0e2dff4","renounceOwnership()":"715018a6","resolveRound(uint256,uint256,bytes32)":"29331ab8","rounds(uint256)":"8c65c81f","setFeeRecipient(address)":"e74b981b","transferOwnership(address)":"f2fde38b","wagers(uint256,address)":"add5e689","winningPool(uint256)":"0175ccd3"},"id":0}