{"abi":[{"type":"constructor","inputs":[{"name":"_feeRecipient","type":"address","internalType":"address"}],"stateMutability":"nonpayable"},{"type":"function","name":"BPS","inputs":[],"outputs":[{"name":"","type":"uint256","internalType":"uint256"}],"stateMutability":"view"},{"type":"function","name":"FEE_BPS","inputs":[],"outputs":[{"name":"","type":"uint256","internalType":"uint256"}],"stateMutability":"view"},{"type":"function","name":"claimWinnings","inputs":[{"name":"_roundId","type":"uint256","internalType":"uint256"}],"outputs":[],"stateMutability":"nonpayable"},{"type":"function","name":"coinTotals","inputs":[{"name":"roundId","type":"uint256","internalType":"uint256"},{"name":"coinIndex","type":"uint256","internalType":"uint256"}],"outputs":[{"name":"total","type":"uint256","internalType":"uint256"}],"stateMutability":"view"},{"type":"function","name":"createRound","inputs":[{"name":"_coins","type":"string[]","internalType":"string[]"},{"name":"_duration","type":"uint256","internalType":"uint256"}],"outputs":[{"name":"roundId","type":"uint256","internalType":"uint256"}],"stateMutability":"nonpayable"},{"type":"function","name":"feeRecipient","inputs":[],"outputs":[{"name":"","type":"address","internalType":"address"}],"stateMutability":"view"},{"type":"function","name":"getCoinTotal","inputs":[{"name":"_roundId","type":"uint256","internalType":"uint256"},{"name":"_coinIndex","type":"uint256","internalType":"uint256"}],"outputs":[{"name":"","type":"uint256","internalType":"uint256"}],"stateMutability":"view"},{"type":"function","name":"getRound","inputs":[{"name":"_roundId","type":"uint256","internalType":"uint256"}],"outputs":[{"name":"coins_","type":"string[]","internalType":"string[]"},{"name":"deadline_","type":"uint256","internalType":"uint256"},{"name":"totalPot_","type":"uint256","internalType":"uint256"},{"name":"winningCoinIndex_","type":"uint256","internalType":"uint256"},{"name":"resolved_","type":"bool","internalType":"bool"}],"stateMutability":"view"},{"type":"function","name":"getWager","inputs":[{"name":"_roundId","type":"uint256","internalType":"uint256"},{"name":"_user","type":"address","internalType":"address"}],"outputs":[{"name":"coinIndex_","type":"uint256","internalType":"uint256"},{"name":"amount_","type":"uint256","internalType":"uint256"},{"name":"claimed_","type":"bool","internalType":"bool"}],"stateMutability":"view"},{"type":"function","name":"isBettingOpen","inputs":[{"name":"_roundId","type":"uint256","internalType":"uint256"}],"outputs":[{"name":"","type":"bool","internalType":"bool"}],"stateMutability":"view"},{"type":"function","name":"nextRoundId","inputs":[],"outputs":[{"name":"","type":"uint256","internalType":"uint256"}],"stateMutability":"view"},{"type":"function","name":"owner","inputs":[],"outputs":[{"name":"","type":"address","internalType":"address"}],"stateMutability":"view"},{"type":"function","name":"placeWager","inputs":[{"name":"_roundId","type":"uint256","internalType":"uint256"},{"name":"_coinIndex","type":"uint256","internalType":"uint256"}],"outputs":[],"stateMutability":"payable"},{"type":"function","name":"renounceOwnership","inputs":[],"outputs":[],"stateMutability":"nonpayable"},{"type":"function","name":"resolveRound","inputs":[{"name":"_roundId","type":"uint256","internalType":"uint256"},{"name":"_winningCoinIndex","type":"uint256","internalType":"uint256"}],"outputs":[],"stateMutability":"nonpayable"},{"type":"function","name":"rounds","inputs":[{"name":"roundId","type":"uint256","internalType":"uint256"}],"outputs":[{"name":"deadline","type":"uint256","internalType":"uint256"},{"name":"totalPot","type":"uint256","internalType":"uint256"},{"name":"winningCoinIndex","type":"uint256","internalType":"uint256"},{"name":"resolved","type":"bool","internalType":"bool"},{"name":"exists","type":"bool","internalType":"bool"}],"stateMutability":"view"},{"type":"function","name":"setFeeRecipient","inputs":[{"name":"_feeRecipient","type":"address","internalType":"address"}],"outputs":[],"stateMutability":"nonpayable"},{"type":"function","name":"transferOwnership","inputs":[{"name":"newOwner","type":"address","internalType":"address"}],"outputs":[],"stateMutability":"nonpayable"},{"type":"function","name":"wagers","inputs":[{"name":"roundId","type":"uint256","internalType":"uint256"},{"name":"user","type":"address","internalType":"address"}],"outputs":[{"name":"coinIndex","type":"uint256","internalType":"uint256"},{"name":"amount","type":"uint256","internalType":"uint256"},{"name":"claimed","type":"bool","internalType":"bool"}],"stateMutability":"view"},{"type":"function","name":"winningPool","inputs":[{"name":"roundId","type":"uint256","internalType":"uint256"}],"outputs":[{"name":"total","type":"uint256","internalType":"uint256"}],"stateMutability":"view"},{"type":"event","name":"FeeRecipientUpdated","inputs":[{"name":"oldRecipient","type":"address","indexed":true,"internalType":"address"},{"name":"newRecipient","type":"address","indexed":true,"internalType":"address"}],"anonymous":false},{"type":"event","name":"FeesCollected","inputs":[{"name":"amount","type":"uint256","indexed":false,"internalType":"uint256"}],"anonymous":false},{"type":"event","name":"OwnershipTransferred","inputs":[{"name":"previousOwner","type":"address","indexed":true,"internalType":"address"},{"name":"newOwner","type":"address","indexed":true,"internalType":"address"}],"anonymous":false},{"type":"event","name":"RoundCreated","inputs":[{"name":"roundId","type":"uint256","indexed":true,"internalType":"uint256"},{"name":"coins","type":"string[]","indexed":false,"internalType":"string[]"},{"name":"deadline","type":"uint256","indexed":false,"internalType":"uint256"}],"anonymous":false},{"type":"event","name":"RoundResolved","inputs":[{"name":"roundId","type":"uint256","indexed":true,"internalType":"uint256"},{"name":"winningCoinIndex","type":"uint256","indexed":false,"internalType":"uint256"},{"name":"winningCoin","type":"string","indexed":false,"internalType":"string"}],"anonymous":false},{"type":"event","name":"WagerPlaced","inputs":[{"name":"roundId","type":"uint256","indexed":true,"internalType":"uint256"},{"name":"user","type":"address","indexed":true,"internalType":"address"},{"name":"coinIndex","type":"uint256","indexed":false,"internalType":"uint256"},{"name":"amount","type":"uint256","indexed":false,"internalType":"uint256"}],"anonymous":false},{"type":"event","name":"WinningsClaimed","inputs":[{"name":"roundId","type":"uint256","indexed":true,"internalType":"uint256"},{"name":"user","type":"address","indexed":true,"internalType":"address"},{"name":"amount","type":"uint256","indexed":false,"internalType":"uint256"}],"anonymous":false},{"type":"error","name":"AlreadyClaimed","inputs":[]},{"type":"error","name":"BettingClosed","inputs":[]},{"type":"error","name":"InsufficientWager","inputs":[]},{"type":"error","name":"InvalidCoinIndex","inputs":[]},{"type":"error","name":"NoWinnings","inputs":[]},{"type":"error","name":"OwnableInvalidOwner","inputs":[{"name":"owner","type":"address","internalType":"address"}]},{"type":"error","name":"OwnableUnauthorizedAccount","inputs":[{"name":"account","type":"address","internalType":"address"}]},{"type":"error","name":"RoundAlreadyResolved","inputs":[]},{"type":"error","name":"RoundNotActive","inputs":[]},{"type":"error","name":"RoundNotResolved","inputs":[]},{"type":"error","name":"TransferFailed","inputs":[]}],"bytecode":{"object":"0x6080346100c657601f61100638819003918201601f19168301916001600160401b038311848410176100ca578084926020946040528339810103126100c657516001600160a01b0390818116908190036100c65733156100ae575f5460018060a01b03199033828216175f55604051933391167f8be0079c531659141344cd1fd0a4f28419497f9722a3daafe3b4186f6b6457e05f80a3600180556002541617600255610f2790816100df8239f35b604051631e4fbdf760e01b81525f6004820152602490fd5b5f80fd5b634e487b7160e01b5f52604160045260245ffdfe6080806040526004361015610012575f80fd5b5f3560e01c9081630175ccd314610c68575080631900c42b14610a96578063249d39e914610c4c5780634002eda614610c2f5780634690484014610c07578063677bd9ff14610ac55780636f15ee7f14610a96578063715018a614610a3f5780637706c0aa146108ca5780638c65c81f146108695780638da5cb5b146108425780638f1327c014610779578063a0e2dff414610637578063add5e689146105ab578063bf333f2c1461061b578063caafb322146105ab578063e3773fa51461054a578063e74b981b146104e1578063f2fde38b146104575763f5a28891146100f8575f80fd5b346104535760403660031901126104535760043567ffffffffffffffff8111610453573660238201121561045357806004013561013481610d77565b916101426040519384610d55565b81835260208301906024829360051b820101903682116104535760248101925b8284106103e8578585610173610ec6565b600154905f1982146103d45760018201600155815f52600360205260405f209083519068010000000000000000821161034e578254828455808310610362575b505f8381526020812092915b82821061023757602086807fc7f4f74bb7afe26ef327e09549d92480c3a18f403359c991c817614ce3f278da6102278b8a60046101fe60243542610ea3565b918260018201550161010061ff0019825416179055604051928392604084526040840190610ca4565b90878301520390a2604051908152f35b805180519067ffffffffffffffff821161034e576102558654610dda565b90601f91828111610316575b5060209183116001146102aa5792826001949360209386955f9261029f575b50505f19600383901b1c191690841b1787555b019401910190926101bf565b015190508c80610280565b90865f5260205f20915f5b601f19851681106102fe575083602093600196938796938794601f198116106102e6575b505050811b018755610293565b01515f1960f88460031b161c191690558c80806102d9565b919260206001819286850151815501940192016102b5565b61033f90885f5260205f208480870160051c82019260208810610345575b0160051c0190610eb0565b8a610261565b92508192610334565b634e487b7160e01b5f52604160045260245ffd5b835f5260205f20908382015b818301811061037e5750506101b3565b8061038b60019254610dda565b80610398575b500161036e565b601f9081811184146103b05750505f81555b89610391565b6103cb5f9284845260208420920160051c8201858301610eb0565b818355556103aa565b634e487b7160e01b5f52601160045260245ffd5b833567ffffffffffffffff811161045357820190366043830112156104535760248201359060449261041983610d8f565b906104276040519283610d55565b838252368585830101116104535760208481969582965f94018386013783010152815201930192610162565b5f80fd5b3461045357602036600319011261045357610470610d3f565b610478610ec6565b6001600160a01b039081169081156104c9575f54826bffffffffffffffffffffffff60a01b8216175f55167f8be0079c531659141344cd1fd0a4f28419497f9722a3daafe3b4186f6b6457e05f80a3005b604051631e4fbdf760e01b81525f6004820152602490fd5b34610453576020366003190112610453576104fa610d3f565b610502610ec6565b600280546001600160a01b039283166001600160a01b0319821681179092559091167faaebcf1bfa00580e41d966056b48521fa9f202645c86d4ddf28113e617c1b1d35f80a3005b34610453576020366003190112610453576004355f526003602052602060405f2060048101549060ff8260081c16918261059f575b5081610591575b506040519015158152f35b600191500154421082610586565b60ff161591508361057f565b34610453576040366003190112610453576105c4610d29565b6004355f52600460205260405f209060018060a01b03165f5260205260405f20805461061760ff600260018501549401541660405193849384919260409194936060840195845260208401521515910152565b0390f35b34610453575f3660031901126104535760206040516101f48152f35b61064036610c8e565b90805f5260206003815260405f2060ff600482015460081c161561076757600181015442101561075557805484101561072657341561074357825f526004825260405f20335f52825260405f209060018201805492831593841580610738575b61072657876106ba9260029661071e575b50503490610ea3565b9055016106c8348254610ea3565b9055815f526005815260405f20835f52815260405f206106e9348254610ea3565b905560405192835234908301527fac7842bbd85e5b7fefb61bdd4c46965c06b188aa772aeba7748e5ec17f23318c60403393a3005b5587896106b1565b6040516315464a8360e01b8152600490fd5b5087825414156106a0565b604051634c89f48760e11b8152600490fd5b6040516330e2a62560e11b8152600490fd5b604051633df07da560e01b8152600490fd5b3461045357602080600319360112610453576004355f526003815260405f206001916001820154600283015460038401549060ff6004860154169285546107bf81610d77565b966107cd6040519889610d55565b8188525f9081528681208789015b83831061081857505050506107ff965060405196879660a0885260a0880190610ca4565b9486015260408501526060840152151560808301520390f35b8a8981926040516108348161082d8189610e12565b0382610d55565b8152019201920191906107db565b34610453575f366003190112610453575f546040516001600160a01b039091168152602090f35b34610453576020366003190112610453576004355f52600360205260a060405f2060ff6001820154916002810154906004600382015491015491604051948552602085015260408401528181161515606084015260081c1615156080820152f35b34610453576108d836610c8e565b6108e0610ec6565b815f5260206003815260405f209160048301805460ff8160081c16156107675760ff8116610a2d5784548310156107265760019083600387015560ff1916179055835f526005825260405f20815f52825260405f2054845f526006835260405f205560028301546101f4908181029181830414901517156103d4576127109004806109cb575b5082548110156109b7577f9d95d9b370cc636ecac07c94460e551d237299c03ac358ae0f769baafd0fe283925f526109b281835f20016040805194859485528401526040830190610e12565b0390a2005b634e487b7160e01b5f52603260045260245ffd5b5f8080808460018060a01b03600254165af16109e5610dab565b5015610a1b57827f860c0aa5520013080c2f65981705fcdea474d9f7c3daf954656ed5e65d692d1f91604051908152a184610966565b6040516312171d8360e31b8152600490fd5b604051637e28f94960e01b8152600490fd5b34610453575f36600319011261045357610a57610ec6565b5f80546001600160a01b0319811682556001600160a01b03167f8be0079c531659141344cd1fd0a4f28419497f9722a3daafe3b4186f6b6457e08280a3005b3461045357610aa436610c8e565b905f52600560205260405f20905f52602052602060405f2054604051908152f35b346104535760208060031936011261045357600435805f526003825260405f20916004815260405f20335f52815260405f209260ff60048201541615610bf557600284019081549460ff8616610be3578054600383015403610bd15760010154908115610bd157600201546101f48082029082820414821517156103d457612710900481039081116103d457808202918204036103d457835f526006835260405f20548015610bbd57600191049460ff19161790555f80808086335af1610b8a610dab565b5015610a1b577f5380cf6fe903b40c6d5a9e0dfbca2f3a423f0a21520b4d5947ed5169bdba946d906040519384523393a3005b634e487b7160e01b5f52601260045260245ffd5b6040516330a748d360e11b8152600490fd5b604051630c8d9eab60e31b8152600490fd5b604051637150b2cd60e11b8152600490fd5b34610453575f366003190112610453576002546040516001600160a01b039091168152602090f35b34610453575f366003190112610453576020600154604051908152f35b34610453575f3660031901126104535760206040516127108152f35b34610453576020366003190112610453576020906004355f526006825260405f20548152f35b6040906003190112610453576004359060243590565b9080825180825260208092019180808360051b8601019501935f905b838210610cd05750505050505090565b90919293949583601f198084840301885288518051908185525f5b828110610d155750505f818501840152601f01169091018101968101950193929160010190610cc0565b818101850151868201860152889401610ceb565b602435906001600160a01b038216820361045357565b600435906001600160a01b038216820361045357565b90601f8019910116810190811067ffffffffffffffff82111761034e57604052565b67ffffffffffffffff811161034e5760051b60200190565b67ffffffffffffffff811161034e57601f01601f191660200190565b3d15610dd5573d90610dbc82610d8f565b91610dca6040519384610d55565b82523d5f602084013e565b606090565b90600182811c92168015610e08575b6020831014610df457565b634e487b7160e01b5f52602260045260245ffd5b91607f1691610de9565b80545f9392610e2082610dda565b918282526020936001916001811690815f14610e845750600114610e46575b5050505050565b90939495505f92919252835f2092845f945b838610610e7057505050500101905f80808080610e3f565b805485870183015294019385908201610e58565b60ff19168685015250505090151560051b010191505f80808080610e3f565b919082018092116103d457565b818110610ebb575050565b5f8155600101610eb0565b5f546001600160a01b03163303610ed957565b60405163118cdaa760e01b8152336004820152602490fdfea26469706673582212204ba98677a339969748097237ae4a9bcd8152cf8f7ae3b9a8f2b3bb195e019f7764736f6c63430008180033","linkReferences":{}},"methodIdentifiers":{"BPS()":"249d39e9","FEE_BPS()":"bf333f2c","claimWinnings(uint256)":"677bd9ff","coinTotals(uint256,uint256)":"1900c42b","createRound(string[],uint256)":"f5a28891","feeRecipient()":"46904840","getCoinTotal(uint256,uint256)":"6f15ee7f","getRound(uint256)":"8f1327c0","getWager(uint256,address)":"caafb322","isBettingOpen(uint256)":"e3773fa5","nextRoundId()":"4002eda6","owner()":"8da5cb5b","placeWager(uint256,uint256)":"a0e2dff4","renounceOwnership()":"715018a6","resolveRound(uint256,uint256)":"7706c0aa","rounds(uint256)":"8c65c81f","setFeeRecipient(address)":"e74b981b","transferOwnership(address)":"f2fde38b","wagers(uint256,address)":"add5e689","winningPool(uint256)":"0175ccd3"},"id":0}