{"abi":[{"type":"constructor","inputs":[{"name":"_pyth","type":"address","internalType":"address"},{"name":"_feeRecipient","type":"address","internalType":"address"}],"stateMutability":"nonpayable"},{"type":"receive","stateMutability":"payable"},{"type":"function","name":"BPS","inputs":[],"outputs":[{"name":"","type":"uint256","internalType":"uint256"}],"stateMutability":"view"},{"type":"function","name":"FEE_BPS","inputs":[],"outputs":[{"name":"","type":"uint256","internalType":"uint256"}],"stateMutability":"view"},{"type":"function","name":"MAX_COINS","inputs":[],"outputs":[{"name":"","type":"uint256","internalType":"uint256"}],"stateMutability":"view"},{"type":"function","name":"MIN_DURATION","inputs":[],"outputs":[{"name":"","type":"uint256","internalType":"uint256"}],"stateMutability":"view"},{"type":"function","name":"MIN_WAGER","inputs":[],"outputs":[{"name":"","type":"uint256","internalType":"uint256"}],"stateMutability":"view"},{"type":"function","name":"PRICE_PRECISION","inputs":[],"outputs":[{"name":"","type":"int64","internalType":"int64"}],"stateMutability":"view"},{"type":"function","name":"PRICE_STALENESS","inputs":[],"outputs":[{"name":"","type":"uint256","internalType":"uint256"}],"stateMutability":"view"},{"type":"function","name":"REFUND_TIMEOUT","inputs":[],"outputs":[{"name":"","type":"uint256","internalType":"uint256"}],"stateMutability":"view"},{"type":"function","name":"cancelRound","inputs":[{"name":"_roundId","type":"uint256","internalType":"uint256"}],"outputs":[],"stateMutability":"nonpayable"},{"type":"function","name":"claimWinnings","inputs":[{"name":"_roundId","type":"uint256","internalType":"uint256"}],"outputs":[],"stateMutability":"nonpayable"},{"type":"function","name":"coinTotals","inputs":[{"name":"roundId","type":"uint256","internalType":"uint256"},{"name":"coinIndex","type":"uint256","internalType":"uint256"}],"outputs":[{"name":"total","type":"uint256","internalType":"uint256"}],"stateMutability":"view"},{"type":"function","name":"createRound","inputs":[{"name":"_symbols","type":"string[]","internalType":"string[]"},{"name":"_priceFeeds","type":"bytes32[]","internalType":"bytes32[]"},{"name":"_duration","type":"uint256","internalType":"uint256"}],"outputs":[{"name":"roundId","type":"uint256","internalType":"uint256"}],"stateMutability":"nonpayable"},{"type":"function","name":"emergencyRefund","inputs":[{"name":"_roundId","type":"uint256","internalType":"uint256"}],"outputs":[],"stateMutability":"nonpayable"},{"type":"function","name":"feeRecipient","inputs":[],"outputs":[{"name":"","type":"address","internalType":"address"}],"stateMutability":"view"},{"type":"function","name":"getCoinTotal","inputs":[{"name":"_roundId","type":"uint256","internalType":"uint256"},{"name":"_coinIndex","type":"uint256","internalType":"uint256"}],"outputs":[{"name":"","type":"uint256","internalType":"uint256"}],"stateMutability":"view"},{"type":"function","name":"getCoinsCount","inputs":[{"name":"_roundId","type":"uint256","internalType":"uint256"}],"outputs":[{"name":"","type":"uint256","internalType":"uint256"}],"stateMutability":"view"},{"type":"function","name":"getRound","inputs":[{"name":"_roundId","type":"uint256","internalType":"uint256"}],"outputs":[{"name":"symbols","type":"string[]","internalType":"string[]"},{"name":"priceFeeds","type":"bytes32[]","internalType":"bytes32[]"},{"name":"startPrices","type":"int64[]","internalType":"int64[]"},{"name":"endPrices","type":"int64[]","internalType":"int64[]"},{"name":"deadline","type":"uint256","internalType":"uint256"},{"name":"totalPot","type":"uint256","internalType":"uint256"},{"name":"winningCoinIndex","type":"uint256","internalType":"uint256"},{"name":"pricesSnapshotted","type":"bool","internalType":"bool"},{"name":"resolved","type":"bool","internalType":"bool"},{"name":"cancelled","type":"bool","internalType":"bool"}],"stateMutability":"view"},{"type":"function","name":"getUpdateFee","inputs":[{"name":"_priceUpdateData","type":"bytes[]","internalType":"bytes[]"}],"outputs":[{"name":"","type":"uint256","internalType":"uint256"}],"stateMutability":"view"},{"type":"function","name":"getWager","inputs":[{"name":"_roundId","type":"uint256","internalType":"uint256"},{"name":"_user","type":"address","internalType":"address"}],"outputs":[{"name":"coinIndex","type":"uint256","internalType":"uint256"},{"name":"amount","type":"uint256","internalType":"uint256"},{"name":"claimed","type":"bool","internalType":"bool"},{"name":"refunded","type":"bool","internalType":"bool"}],"stateMutability":"view"},{"type":"function","name":"isBettingOpen","inputs":[{"name":"_roundId","type":"uint256","internalType":"uint256"}],"outputs":[{"name":"","type":"bool","internalType":"bool"}],"stateMutability":"view"},{"type":"function","name":"isRefundAvailable","inputs":[{"name":"_roundId","type":"uint256","internalType":"uint256"}],"outputs":[{"name":"","type":"bool","internalType":"bool"}],"stateMutability":"view"},{"type":"function","name":"nextRoundId","inputs":[],"outputs":[{"name":"","type":"uint256","internalType":"uint256"}],"stateMutability":"view"},{"type":"function","name":"owner","inputs":[],"outputs":[{"name":"","type":"address","internalType":"address"}],"stateMutability":"view"},{"type":"function","name":"placeWager","inputs":[{"name":"_roundId","type":"uint256","internalType":"uint256"},{"name":"_coinIndex","type":"uint256","internalType":"uint256"}],"outputs":[],"stateMutability":"payable"},{"type":"function","name":"pyth","inputs":[],"outputs":[{"name":"","type":"address","internalType":"contract IPyth"}],"stateMutability":"view"},{"type":"function","name":"renounceOwnership","inputs":[],"outputs":[],"stateMutability":"pure"},{"type":"function","name":"resolveRound","inputs":[{"name":"_roundId","type":"uint256","internalType":"uint256"},{"name":"_priceUpdateData","type":"bytes[]","internalType":"bytes[]"}],"outputs":[],"stateMutability":"payable"},{"type":"function","name":"setFeeRecipient","inputs":[{"name":"_feeRecipient","type":"address","internalType":"address"}],"outputs":[],"stateMutability":"nonpayable"},{"type":"function","name":"snapshotStartPrices","inputs":[{"name":"_roundId","type":"uint256","internalType":"uint256"},{"name":"_priceUpdateData","type":"bytes[]","internalType":"bytes[]"}],"outputs":[],"stateMutability":"payable"},{"type":"function","name":"transferOwnership","inputs":[{"name":"newOwner","type":"address","internalType":"address"}],"outputs":[],"stateMutability":"nonpayable"},{"type":"function","name":"wagers","inputs":[{"name":"roundId","type":"uint256","internalType":"uint256"},{"name":"user","type":"address","internalType":"address"}],"outputs":[{"name":"coinIndex","type":"uint256","internalType":"uint256"},{"name":"amount","type":"uint256","internalType":"uint256"},{"name":"claimed","type":"bool","internalType":"bool"},{"name":"refunded","type":"bool","internalType":"bool"}],"stateMutability":"view"},{"type":"function","name":"winningPool","inputs":[{"name":"roundId","type":"uint256","internalType":"uint256"}],"outputs":[{"name":"total","type":"uint256","internalType":"uint256"}],"stateMutability":"view"},{"type":"event","name":"EmergencyRefund","inputs":[{"name":"roundId","type":"uint256","indexed":true,"internalType":"uint256"},{"name":"user","type":"address","indexed":true,"internalType":"address"},{"name":"amount","type":"uint256","indexed":false,"internalType":"uint256"}],"anonymous":false},{"type":"event","name":"FeeRecipientUpdated","inputs":[{"name":"oldRecipient","type":"address","indexed":true,"internalType":"address"},{"name":"newRecipient","type":"address","indexed":true,"internalType":"address"}],"anonymous":false},{"type":"event","name":"FeesCollected","inputs":[{"name":"amount","type":"uint256","indexed":false,"internalType":"uint256"}],"anonymous":false},{"type":"event","name":"OwnershipTransferred","inputs":[{"name":"previousOwner","type":"address","indexed":true,"internalType":"address"},{"name":"newOwner","type":"address","indexed":true,"internalType":"address"}],"anonymous":false},{"type":"event","name":"PricesSnapshotted","inputs":[{"name":"roundId","type":"uint256","indexed":true,"internalType":"uint256"},{"name":"startPrices","type":"int64[]","indexed":false,"internalType":"int64[]"}],"anonymous":false},{"type":"event","name":"RoundCancelled","inputs":[{"name":"roundId","type":"uint256","indexed":true,"internalType":"uint256"}],"anonymous":false},{"type":"event","name":"RoundCreated","inputs":[{"name":"roundId","type":"uint256","indexed":true,"internalType":"uint256"},{"name":"coins","type":"string[]","indexed":false,"internalType":"string[]"},{"name":"priceFeeds","type":"bytes32[]","indexed":false,"internalType":"bytes32[]"},{"name":"deadline","type":"uint256","indexed":false,"internalType":"uint256"}],"anonymous":false},{"type":"event","name":"RoundResolved","inputs":[{"name":"roundId","type":"uint256","indexed":true,"internalType":"uint256"},{"name":"winningCoinIndex","type":"uint256","indexed":false,"internalType":"uint256"},{"name":"winningCoin","type":"string","indexed":false,"internalType":"string"},{"name":"percentGain","type":"int256","indexed":false,"internalType":"int256"}],"anonymous":false},{"type":"event","name":"WagerPlaced","inputs":[{"name":"roundId","type":"uint256","indexed":true,"internalType":"uint256"},{"name":"user","type":"address","indexed":true,"internalType":"address"},{"name":"coinIndex","type":"uint256","indexed":false,"internalType":"uint256"},{"name":"amount","type":"uint256","indexed":false,"internalType":"uint256"}],"anonymous":false},{"type":"event","name":"WinningsClaimed","inputs":[{"name":"roundId","type":"uint256","indexed":true,"internalType":"uint256"},{"name":"user","type":"address","indexed":true,"internalType":"address"},{"name":"amount","type":"uint256","indexed":false,"internalType":"uint256"}],"anonymous":false},{"type":"error","name":"AlreadyClaimed","inputs":[]},{"type":"error","name":"AlreadyRefunded","inputs":[]},{"type":"error","name":"ArrayLengthMismatch","inputs":[]},{"type":"error","name":"BettingClosed","inputs":[]},{"type":"error","name":"BettingStillOpen","inputs":[]},{"type":"error","name":"DurationTooShort","inputs":[]},{"type":"error","name":"InsufficientPythFee","inputs":[]},{"type":"error","name":"InsufficientWager","inputs":[]},{"type":"error","name":"InvalidCoinIndex","inputs":[]},{"type":"error","name":"InvalidPrice","inputs":[]},{"type":"error","name":"NeedAtLeastTwoCoins","inputs":[]},{"type":"error","name":"NoBettors","inputs":[]},{"type":"error","name":"NoWinnings","inputs":[]},{"type":"error","name":"OwnableInvalidOwner","inputs":[{"name":"owner","type":"address","internalType":"address"}]},{"type":"error","name":"OwnableUnauthorizedAccount","inputs":[{"name":"account","type":"address","internalType":"address"}]},{"type":"error","name":"PriceNotSnapshotted","inputs":[]},{"type":"error","name":"PriceStale","inputs":[]},{"type":"error","name":"RefundTooEarly","inputs":[]},{"type":"error","name":"RoundAlreadyResolved","inputs":[]},{"type":"error","name":"RoundIsCancelled","inputs":[]},{"type":"error","name":"RoundNotActive","inputs":[]},{"type":"error","name":"RoundNotResolved","inputs":[]},{"type":"error","name":"TooManyCoins","inputs":[]},{"type":"error","name":"TransferFailed","inputs":[]},{"type":"error","name":"ZeroAddress","inputs":[]}],"bytecode":{"object":"0x60a0346200014657620022b490601f38839003908101601f19168201906001600160401b038211838310176200014a578083916040958694855283398101031262000146576200005d602062000055836200015e565b92016200015e565b9033156200012f575f549160018060a01b03908160018060a01b03199333858716175f55865195823391167f8be0079c531659141344cd1fd0a4f28419497f9722a3daafe3b4186f6b6457e05f80a36001805516938415620001205750169182156200010f5760805260025416176002555161214090816200017482396080518181816101be015281816103bb01528181610d9801528181611ac201528181611b0401528181611b590152611bd70152f35b835163d92e233d60e01b8152600490fd5b63d92e233d60e01b8152600490fd5b8251631e4fbdf760e01b81525f6004820152602490fd5b5f80fd5b634e487b7160e01b5f52604160045260245ffd5b51906001600160a01b0382168203620001465756fe608080604052600436101561001c575b50361561001a575f80fd5b005b5f905f3560e01c9081630175ccd31461150d575080631900c42b14611297578063249d39e9146114f1578063384302a9146114d65780634002eda6146114b957806346904840146114915780634ac1440d14611405578063677bd9ff146112c65780636f15ee7f1461129757806370e5deb914611162578063715018a6146111405780637d57900a146111235780637e07ab091461108d578063897c206c146110635780638ca3b2f514610d385780638da5cb5b14610d115780638f1327c014610b2757806395082d2514610b04578063a0e2dff41461099c578063a87ea8a5146104f6578063add5e6891461043c578063b3228b0d146104f1578063b6a6d177146104f1578063ba32d750146104db578063bf333f2c146104be578063caafb3221461043c578063d47eed4514610364578063e3773fa5146102ea578063e74b981b14610274578063f2fde38b146101ed578063f98d06f0146101a85763fdb6cf450361000f57346101a557806003193601126101a557602060405166038d7ea4c680008152f35b80fd5b50346101a557806003193601126101a5576040517f00000000000000000000000000000000000000000000000000000000000000006001600160a01b03168152602090f35b50346101a55760203660031901126101a557610207611745565b61020f611fd3565b6001600160a01b0390811690811561026257610229611fd3565b82546001600160a01b0319811683178455167f8be0079c531659141344cd1fd0a4f28419497f9722a3daafe3b4186f6b6457e08380a380f35b60405163d92e233d60e01b8152600490fd5b50346101a55760203660031901126101a55761028e611745565b610296611fd3565b6001600160a01b0390811690811561026257600254826bffffffffffffffffffffffff60a01b821617600255167faaebcf1bfa00580e41d966056b48521fa9f202645c86d4ddf28113e617c1b1d38380a380f35b50346101a55760203660031901126101a55760406020916004358152600383522060048101549060ff8260101c169182610354575b82610345575b5081610337575b506040519015158152f35b60019150015442105f61032c565b60181c60ff161591505f610325565b915060ff8260081c16159161031f565b50346101a557602090816003193601126101a5576004356001600160401b038111610438578261039b6103b7923690600401611549565b60405163d47eed4560e01b8152938492839290600484016117c0565b03817f00000000000000000000000000000000000000000000000000000000000000006001600160a01b03165afa91821561042c57916103fb575b50604051908152f35b90508181813d8311610425575b61041281836116dc565b8101031261042157515f6103f2565b5f80fd5b503d610408565b604051903d90823e3d90fd5b5080fd5b50346101a55760403660031901126101a557604061045861172f565b9160043581526004602052209060018060a01b03165f5260205260405f208054906104ba6002600183015492015460405193849360ff808460081c16931691859260609295949195608085019685526020850152151560408401521515910152565b0390f35b50346101a557806003193601126101a55760206040516101f48152f35b506104ee6104e836611579565b91611a48565b80f35b61175b565b50346101a55760603660031901126101a5576004356001600160401b038111610438573660238201121561043857806004013590610533826116fd565b9161054160405193846116dc565b8083526024602084019160051b830101913683116109985760248101915b83831061092c5785856024356001600160401b038111610928573660238201121561092857806004013590610593826116fd565b916105a160405193846116dc565b8083526024602084019160051b8301019136831161092457602401905b828210610914575050506044356105d3611fd3565b610e1081106109025760028351106108f057600a8351116108df5782518251036108cd57600154925f1984146108b957600184016001558385526003602052610620604086209242611777565b600183015560048201805462ff0000191662010000179055845b81518110156108545761064d8183611922565b516106588286611922565b5160405191610666836116c1565b825260208201528660408201528660608201528354680100000000000000008110156108405780600161069c9201865585611893565b61082c5781518051906001600160401b038211610818576106bd8354611936565b601f81116107d7575b506020908a601f84116001146107665793836001979694606094600294610755989261075b575b50505f19600383901b1c191690881b1781555b602084015187820155019160408101516001600160401b0319845416906001600160401b0316178355015160070b81549060401b67ffffffffffffffff60401b169067ffffffffffffffff60401b1916179055565b0161063a565b015190508e806106ed565b84905260208b2091908b5b601f19851681106107bf57509360018460609460029461075598849b9a98601f198116106107a7575b505050811b018155610700565b01515f1960f88460031b161c191690558e808061079a565b91926020600181928685015181550194019201610771565b838b5260208b20601f840160051c810160208510610811575b601f830160051c820181106108065750506106c6565b8c81556001016107f0565b50806107f0565b634e487b7160e01b8a52604160045260248afd5b634e487b7160e01b88526004889052602488fd5b634e487b7160e01b88526041600452602488fd5b602085807fc97b0301c6e481f9240d38b44d04c7c45146deec23c5464bb8640a2c0c25546661089b86896108a860018b0154916040519485946060865260608601906115ac565b908482038a860152611631565b9060408301520390a2604051908152f35b634e487b7160e01b85526011600452602485fd5b60405163512509d360e11b8152600490fd5b60405162b19bd760e51b8152600490fd5b60405163c956490360e01b8152600490fd5b6040516325c3636760e01b8152600490fd5b81358152602091820191016105be565b8580fd5b8280fd5b82356001600160401b038111610994578201366043820112156109945760248101359160448861095b85611714565b9161096960405193846116dc565b858352368187870101116104385785602096879692879301838601378301015281520192019161055f565b8680fd5b8480fd5b506109a636611533565b9080835260206003815260408420600481015460ff8160101c1615610af25760181c60ff16610ae1576001810154421015610acf578054841015610aa05766038d7ea4c680003410610abd578285526004825260408520335f52825260405f209060018201805492831593841580610ab2575b610aa05787610a3392600296610a98575b50503490611777565b905501610a41348254611777565b90558184526005815260408420838552815260408420610a62348254611777565b905560405192835234908301527fac7842bbd85e5b7fefb61bdd4c46965c06b188aa772aeba7748e5ec17f23318c60403393a380f35b55875f610a2a565b6040516315464a8360e01b8152600490fd5b508782541415610a19565b604051634c89f48760e11b8152600490fd5b6040516330e2a62560e11b8152600490fd5b6040516218635360eb1b8152600490fd5b604051633df07da560e01b8152600490fd5b50346101a557806003193601126101a5576020604051670de0b6b3a76400008152f35b50346101a557602080600319360112610438576004358252600381526040822090815490610b54826116fd565b92610b6260405194856116dc565b828452601f199182610b73856116fd565b0181875b828110610d0157505050610b8a846116fd565b92610b9860405194856116dc565b848452610ba4856116fd565b013682850137610bb384611861565b93610bbd81611861565b965b818110610c665750509060ff9291610c2e610c0697610c20600185015497610c126002870154956004600389015498015498604051809e819e6101408084528301906115ac565b92818403910152611631565b908a820360408c0152611664565b9088820360608a0152611664565b94608087015260a086015260c0850152818116151560e0850152818160081c16151561010085015260181c1615156101208301520390f35b80610c86610c8d610c7960019488611893565b506040519283809261196e565b03826116dc565b610c97828a611922565b52610ca28189611922565b5081610cae8287611893565b500154610cbb8288611922565b52610cc68186611893565b5060028091015490600791820b610cdd848b611922565b52610ce88388611893565b50015460401c900b610cfa828b611922565b5201610bbf565b606082828a010152018290610b77565b50346101a557806003193601126101a557546040516001600160a01b039091168152602090f35b50610d4236611579565b825f526003916020926003845260405f20926004840191825460ff8160101c1615610af25760ff8160181c16610ae15760ff16611052576001916001860154421015610acf5760405163d47eed4560e01b8152947f00000000000000000000000000000000000000000000000000000000000000006001600160a01b03169190888780610dd38585600484016117c0565b0381865afa968715611006575f97611023575b5086341061101157823b1561042157604051631df3cbc560e31b8152915f9183918291610e179190600484016117c0565b038189865af1801561100657610fef575b5091809189959493610e3a8854611861565b9787935b610ed0575b5050505050600160ff19825416179055803411610e99575b50507fbea48c4cdfc208f9b51966ab79c871fd489a7c0644359829fff456b01f9fc69091610e93604051928284938452830190611664565b0390a280f35b8180610ea6819334611784565b335af1610eb1611791565b5015610ebe57835f610e5b565b6040516312171d8360e31b8152600490fd5b909192939495968154851015610fe7575084610eec8583611893565b5001546040519063052571af60e51b82526004820152610e1060248201526080908181604481875afa918215610fdc578d92610faf575b50508051948c600796870b1315610f9e578695610f4c836040899551840b910151880b90612029565b610f568386611893565b50906002809201906001600160401b0319825416906001600160401b0316179055610f818386611893565b500154900b610f90828c611922565b52019291908b979695610e3e565b60405162bfc92160e01b8152600490fd5b610fce9250803d10610fd5575b610fc681836116dc565b8101906118c0565b5f80610f23565b503d610fbc565b6040513d8f823e3d90fd5b969594610e43565b8392919950610ffd9061169a565b5f989091610e28565b6040513d5f823e3d90fd5b6040516317f9dfa560e21b8152600490fd5b9096508881813d831161104b575b61103b81836116dc565b810103126104215751955f610de6565b503d611031565b6040516210edc560e71b8152600490fd5b34610421576020366003190112610421576004355f526003602052602060405f2054604051908152f35b34610421576020366003190112610421576004356110a9611fd3565b805f526003602052600460405f2001805460ff8160101c1615610af25760ff8160081c166111115760ff8160181c16610ae15763ff000000191663010000001790557fbf7aeff89cf7a4c3d0145879e39aa6a19e8e64ed585090ef86bf31f4d2ae57bf5f80a2005b604051637e28f94960e01b8152600490fd5b34610421575f36600319011261042157602060405162093a808152f35b34610421575f3660031901126104215760405163d92e233d60e01b8152600490fd5b3461042157602036600319011261042157600435805f52600360205260405f2090600460205260405f20335f5260205260405f2091600481015460ff8160101c1615610af25760ff8160081c166111115760181c60ff16159081611268575b50611256576002820180549260ff8460081c1661124457600101549283156112325761ff0019166101001790555f80808085335af16111fe611791565b5015610ebe576040519182527fbd634c7bdf536d4ef89dad94ea8933d03e5fbb8be4f85fc7699f5859497d793f60203393a3005b6040516330a748d360e11b8152600490fd5b60405163542f378d60e11b8152600490fd5b604051634a01daaf60e11b8152600490fd5b60019150015462093a808101809111611283574210836111c1565b634e487b7160e01b5f52601160045260245ffd5b34610421576112a536611533565b905f52600560205260405f20905f52602052602060405f2054604051908152f35b346104215760208060031936011261042157600435805f526003825260405f20916004815260405f20335f52815260405f209260ff600482015460081c16156113f357600284019081549460ff86166113e15760ff8660081c16611244578054600383015403611232576001015490811561123257600201546101f49081810291818304148115171561128357612710611361920490611784565b8082029182040361128357835f526006835260405f205480156113cd57600191049460ff19161790555f80808086335af161139a611791565b5015610ebe577f5380cf6fe903b40c6d5a9e0dfbca2f3a423f0a21520b4d5947ed5169bdba946d906040519384523393a3005b634e487b7160e01b5f52601260045260245ffd5b604051630c8d9eab60e31b8152600490fd5b604051637150b2cd60e11b8152600490fd5b34610421576020366003190112610421576004355f52600360205260405f20600481015460ff8160101c169081611481575b8161144a575b6020826040519015158152f35b60ff915060181c16908115611464575b506020908261143d565b60019150015462093a80810180911161128357421015602061145a565b905060ff8160081c161590611437565b34610421575f366003190112610421576002546040516001600160a01b039091168152602090f35b34610421575f366003190112610421576020600154604051908152f35b34610421575f366003190112610421576020604051600a8152f35b34610421575f3660031901126104215760206040516127108152f35b34610421576020366003190112610421576020906004355f526006825260405f20548152f35b6040906003190112610421576004359060243590565b9181601f84011215610421578235916001600160401b038311610421576020808501948460051b01011161042157565b9060406003198301126104215760043591602435906001600160401b038211610421576115a891600401611549565b9091565b9080825180825260208092019180808360051b8601019501935f905b8382106115d85750505050505090565b90919293949583601f198084840301885288518051908185525f5b82811061161d5750505f818501840152601f011690910181019681019501939291600101906115c8565b8181018501518682018601528894016115f3565b9081518082526020808093019301915f5b828110611650575050505090565b835185529381019392810192600101611642565b9081518082526020808093019301915f5b828110611683575050505090565b835160070b85529381019392810192600101611675565b6001600160401b0381116116ad57604052565b634e487b7160e01b5f52604160045260245ffd5b608081019081106001600160401b038211176116ad57604052565b90601f801991011681019081106001600160401b038211176116ad57604052565b6001600160401b0381116116ad5760051b60200190565b6001600160401b0381116116ad57601f01601f191660200190565b602435906001600160a01b038216820361042157565b600435906001600160a01b038216820361042157565b34610421575f366003190112610421576020604051610e108152f35b9190820180921161128357565b9190820391821161128357565b3d156117bb573d906117a282611714565b916117b060405193846116dc565b82523d5f602084013e565b606090565b9160208181850182865252604084019360408360051b82010194845f925b8584106117ef575050505050505090565b90919293949596603f198282030184528735601e19843603018112156104215783018681019190356001600160401b0381116104215780360383136104215787828280600196849695859652848401375f828201840152601f01601f19160101990197969591909101930191906117de565b9061186b826116fd565b61187860405191826116dc565b8281528092611889601f19916116fd565b0190602036910137565b80548210156118ac575f52600360205f20910201905f90565b634e487b7160e01b5f52603260045260245ffd5b9081608091031261042157604051906118d8826116c1565b80518060070b810361042157825260208101516001600160401b03811681036104215760208301526040810151908160030b82036104215760609160408401520151606082015290565b80518210156118ac5760209160051b010190565b90600182811c92168015611964575b602083101461195057565b634e487b7160e01b5f52602260045260245ffd5b91607f1691611945565b80545f939261197c82611936565b918282526020936001916001811690815f146119e057506001146119a2575b5050505050565b90939495505f92919252835f2092845f945b8386106119cc57505050500101905f8080808061199b565b8054858701830152940193859082016119b4565b60ff19168685015250505090151560051b010191505f8080808061199b565b81810392915f13801582851316918412161761128357565b906127109182810292818405149015171561128357565b81156113cd57600160ff1b81145f19831416611283570590565b9091925f90825f52600360205260405f2094600486015460ff8160101c1615610af25760ff8160181c16610ae15760ff8160081c166111115760018701544210611fc15760ff161561105257600286015415611faf5760405163d47eed4560e01b81529460208680611abe8585600484016117c0565b03817f00000000000000000000000000000000000000000000000000000000000000006001600160a01b03165afa958615611006575f96611f7b575b50853410611011577f00000000000000000000000000000000000000000000000000000000000000006001600160a01b03163b1561042157604051631df3cbc560e31b8152915f9183918291611b549190600484016117c0565b0381887f00000000000000000000000000000000000000000000000000000000000000006001600160a01b03165af1801561100657611f68575b50600160ff1b9282805b8754811015611cf4576001611bad828a611893565b50015460405163052571af60e51b81526004810191909152610e10602482015260809081816044817f00000000000000000000000000000000000000000000000000000000000000006001600160a01b03165afa918215611ce9578792611ccc575b505085815160070b1315610f9e57611c97611c928a6002611c8386611c44876040611caf995160070b91015160030b90612029565b93611c7e8585611c548585611893565b50019081549060401b67ffffffffffffffff60401b169067ffffffffffffffff60401b1916179055565b611893565b50015460070b9060070b6119ff565b611a17565b6002611ca3848c611893565b50015460070b90611a2e565b868113611cc0575b50600101611b98565b95509050806001611cb7565b611ce29250803d10610fd557610fc681836116dc565b5f80611c0f565b6040513d89823e3d90fd5b5091959392949094858152600560205260408120838252602052604081205415611e69575b82600386015561010061ff001960048701541617600486015585815260056020526040812083825260205260408120548682526006602052604082205560028501546101f490818102918183041490151715611e555761271090049081611dd5575b5050817f473dfa42ddc16d2c1f871342a133a99b05327a31d7c380744c2de5ca186d0dd494611c7e611dac936120df565b5091611dca604051938493845260606020850152606084019061196e565b9060408301520390a2565b8080808460018060a09897981b03600254165af1611df1611791565b5015610ebe577f473dfa42ddc16d2c1f871342a133a99b05327a31d7c380744c2de5ca186d0dd494611c7e84927f860c0aa5520013080c2f65981705fcdea474d9f7c3daf954656ed5e65d692d1f6020611dac96604051908152a193505094611d7b565b634e487b7160e01b82526011600452602482fd5b8454909350600160ff1b925083908190815b818110611ed857505015611e90579192611d19565b506004909301805463ff0000001916630100000017905550611ed692907fbf7aeff89cf7a4c3d0145879e39aa6a19e8e64ed585090ef86bf31f4d2ae57bf9080a26120df565b565b8887526005602052604087208188526020526040872054611efc575b600101611e7b565b611f4b88611f33611c926002611f128685611893565b50015460401c6002611f2687600796611893565b500154840b90840b6119ff565b906002611f40858d611893565b500154900b90611a2e565b868113611f59575b50611ef4565b95509250600191508282611f53565b611f7391925061169a565b5f905f611b8e565b9095506020813d602011611fa7575b81611f97602093836116dc565b810103126104215751945f611afa565b3d9150611f8a565b6040516303e6ad5360e51b8152600490fd5b60405163605d9c5960e11b8152600490fd5b5f546001600160a01b03163303611fe657565b60405163118cdaa760e01b8152336004820152602490fd5b63ffffffff16604d811161128357600a0a90565b9060070b9060070b02908160070b91820361128357565b600382900b5f8112612060575063ffffffff8092166012019182116112835761205461205d92611ffe565b60070b90612012565b90565b909150637fffffff198114611283575f03906012600383900b1361209c5763ffffffff9182166012039182116112835761205461205d92611ffe565b9063ffffffff90811660111901908111611283576120b990611ffe565b60070b9060070b81156113cd57677fffffffffffffff1981145f19831416611283570590565b8034116120e95750565b5f80806120f7819434611784565b335af1612102611791565b5015610ebe5756fea264697066735822122047a9dc46f1d37722b34266ba226f66ed45bf636f265bd79a8fdc37a6d5e8263f64736f6c63430008180033","linkReferences":{}},"methodIdentifiers":{"BPS()":"249d39e9","FEE_BPS()":"bf333f2c","MAX_COINS()":"384302a9","MIN_DURATION()":"b6a6d177","MIN_WAGER()":"fdb6cf45","PRICE_PRECISION()":"95082d25","PRICE_STALENESS()":"b3228b0d","REFUND_TIMEOUT()":"7d57900a","cancelRound(uint256)":"7e07ab09","claimWinnings(uint256)":"677bd9ff","coinTotals(uint256,uint256)":"1900c42b","createRound(string[],bytes32[],uint256)":"a87ea8a5","emergencyRefund(uint256)":"70e5deb9","feeRecipient()":"46904840","getCoinTotal(uint256,uint256)":"6f15ee7f","getCoinsCount(uint256)":"897c206c","getRound(uint256)":"8f1327c0","getUpdateFee(bytes[])":"d47eed45","getWager(uint256,address)":"caafb322","isBettingOpen(uint256)":"e3773fa5","isRefundAvailable(uint256)":"4ac1440d","nextRoundId()":"4002eda6","owner()":"8da5cb5b","placeWager(uint256,uint256)":"a0e2dff4","pyth()":"f98d06f0","renounceOwnership()":"715018a6","resolveRound(uint256,bytes[])":"ba32d750","setFeeRecipient(address)":"e74b981b","snapshotStartPrices(uint256,bytes[])":"8ca3b2f5","transferOwnership(address)":"f2fde38b","wagers(uint256,address)":"add5e689","winningPool(uint256)":"0175ccd3"},"id":1}